{
  "contractName": "TFAS",
  "abi": [
    {
      "inputs": [],
      "stateMutability": "nonpayable",
      "type": "constructor"
    },
    {
      "inputs": [
        {
          "internalType": "uint256",
          "name": "",
          "type": "uint256"
        }
      ],
      "name": "notifications",
      "outputs": [
        {
          "internalType": "string",
          "name": "",
          "type": "string"
        }
      ],
      "stateMutability": "view",
      "type": "function",
      "constant": true
    },
    {
      "inputs": [],
      "name": "projectId",
      "outputs": [
        {
          "internalType": "uint256",
          "name": "",
          "type": "uint256"
        }
      ],
      "stateMutability": "view",
      "type": "function",
      "constant": true
    },
    {
      "inputs": [
        {
          "internalType": "uint256",
          "name": "",
          "type": "uint256"
        }
      ],
      "name": "projects",
      "outputs": [
        {
          "internalType": "uint256",
          "name": "id",
          "type": "uint256"
        },
        {
          "internalType": "string",
          "name": "name",
          "type": "string"
        },
        {
          "internalType": "uint256",
          "name": "budget",
          "type": "uint256"
        },
        {
          "internalType": "string",
          "name": "status",
          "type": "string"
        },
        {
          "internalType": "string",
          "name": "timeline",
          "type": "string"
        }
      ],
      "stateMutability": "view",
      "type": "function",
      "constant": true
    },
    {
      "inputs": [
        {
          "internalType": "string",
          "name": "_name",
          "type": "string"
        },
        {
          "internalType": "uint256",
          "name": "_budget",
          "type": "uint256"
        },
        {
          "internalType": "string",
          "name": "_timeline",
          "type": "string"
        }
      ],
      "name": "createProject",
      "outputs": [],
      "stateMutability": "nonpayable",
      "type": "function"
    },
    {
      "inputs": [],
      "name": "getProjects",
      "outputs": [
        {
          "components": [
            {
              "internalType": "uint256",
              "name": "id",
              "type": "uint256"
            },
            {
              "internalType": "string",
              "name": "name",
              "type": "string"
            },
            {
              "internalType": "uint256",
              "name": "budget",
              "type": "uint256"
            },
            {
              "internalType": "string",
              "name": "status",
              "type": "string"
            },
            {
              "internalType": "string[]",
              "name": "feedbacks",
              "type": "string[]"
            },
            {
              "internalType": "string",
              "name": "timeline",
              "type": "string"
            }
          ],
          "internalType": "struct TFAS.Project[]",
          "name": "",
          "type": "tuple[]"
        }
      ],
      "stateMutability": "view",
      "type": "function",
      "constant": true
    },
    {
      "inputs": [
        {
          "internalType": "uint256",
          "name": "_projectId",
          "type": "uint256"
        },
        {
          "internalType": "string",
          "name": "_feedback",
          "type": "string"
        }
      ],
      "name": "submitFeedback",
      "outputs": [],
      "stateMutability": "nonpayable",
      "type": "function"
    },
    {
      "inputs": [
        {
          "internalType": "string",
          "name": "_notification",
          "type": "string"
        }
      ],
      "name": "addNotification",
      "outputs": [],
      "stateMutability": "nonpayable",
      "type": "function"
    },
    {
      "inputs": [],
      "name": "getNotifications",
      "outputs": [
        {
          "internalType": "string[]",
          "name": "",
          "type": "string[]"
        }
      ],
      "stateMutability": "view",
      "type": "function",
      "constant": true
    }
  ],
  "bytecode": "0x608060405234801561001057600080fd5b5060006001556112a5806100256000396000f3fe608060405234801561001057600080fd5b50600436106100885760003560e01c80635dbb137b1161005b5780635dbb137b14610104578063759c3dc514610117578063cf48bd2c1461012a578063dcc601281461013f57610088565b8063107046bd1461008d57806320b0c9d6146100ba57806334c1f944146100cf5780633fafa127146100ef575b600080fd5b6100a061009b366004610df5565b610154565b6040516100b19594939291906110ff565b60405180910390f35b6100cd6100c8366004610e0d565b61032e565b005b6100e26100dd366004610df5565b6103fd565b6040516100b1919061107b565b6100f76104a9565b6040516100b191906110f6565b6100cd610112366004610d50565b6104af565b6100cd610125366004610d8b565b6104f2565b61013261068a565b6040516100b19190610f0a565b610147610763565b6040516100b19190610f6a565b6000818154811061016457600080fd5b60009182526020909120600690910201805460018201805491935090610189906111c3565b80601f01602080910402602001604051908101604052809291908181526020018280546101b5906111c3565b80156102025780601f106101d757610100808354040283529160200191610202565b820191906000526020600020905b8154815290600101906020018083116101e557829003601f168201915b50505050509080600201549080600301805461021d906111c3565b80601f0160208091040260200160405190810160405280929190818152602001828054610249906111c3565b80156102965780601f1061026b57610100808354040283529160200191610296565b820191906000526020600020905b81548152906001019060200180831161027957829003601f168201915b5050505050908060050180546102ab906111c3565b80601f01602080910402602001604051908101604052809291908181526020018280546102d7906111c3565b80156103245780601f106102f957610100808354040283529160200191610324565b820191906000526020600020905b81548152906001019060200180831161030757829003601f168201915b5050505050905085565b60008211801561034057506001548211155b6103655760405162461bcd60e51b815260040161035c906110ca565b60405180910390fd5b600061037260018461117c565b8154811061039057634e487b7160e01b600052603260045260246000fd5b6000918252602080832060046006909302019190910180546001810182559083529181902083516103c8939190910191840190610b81565b506103f96103d583610a5c565b6040516020016103e59190610e7e565b6040516020818303038152906040526104af565b5050565b6002818154811061040d57600080fd5b906000526020600020016000915090508054610428906111c3565b80601f0160208091040260200160405190810160405280929190818152602001828054610454906111c3565b80156104a15780601f10610476576101008083540402835291602001916104a1565b820191906000526020600020905b81548152906001019060200180831161048457829003601f168201915b505050505081565b60015481565b6002805460018101825560009190915281516103f9917f405787fa12a823e0f2b7631cc41b3ba8828b3321ca811111fa75cd3aa3bb5ace01906020840190610b81565b600082116105125760405162461bcd60e51b815260040161035c90611095565b60018054906000610522836111fe565b919050555060006040518060c0016040528060015481526020018581526020018481526020016040518060400160405280600b81526020016a496e2050726f677265737360a81b8152508152602001600067ffffffffffffffff81111561059957634e487b7160e01b600052604160045260246000fd5b6040519080825280602002602001820160405280156105cc57816020015b60608152602001906001900390816105b75790505b508152602090810184905282546001818101855560009485529382902083516006909202019081558282015180519394919361061093928501929190910190610b81565b506040820151600282015560608201518051610636916003840191602090910190610b81565b5060808201518051610652916004840191602090910190610c05565b5060a0820151805161066e916005840191602090910190610b81565b505050610685836040516020016103e59190610ecd565b505050565b60606002805480602002602001604051908101604052809291908181526020016000905b8282101561075a5783829060005260206000200180546106cd906111c3565b80601f01602080910402602001604051908101604052809291908181526020018280546106f9906111c3565b80156107465780601f1061071b57610100808354040283529160200191610746565b820191906000526020600020905b81548152906001019060200180831161072957829003601f168201915b5050505050815260200190600101906106ae565b50505050905090565b60606000805480602002602001604051908101604052809291908181526020016000905b8282101561075a57838290600052602060002090600602016040518060c0016040529081600082015481526020016001820180546107c4906111c3565b80601f01602080910402602001604051908101604052809291908181526020018280546107f0906111c3565b801561083d5780601f106108125761010080835404028352916020019161083d565b820191906000526020600020905b81548152906001019060200180831161082057829003601f168201915b5050505050815260200160028201548152602001600382018054610860906111c3565b80601f016020809104026020016040519081016040528092919081815260200182805461088c906111c3565b80156108d95780601f106108ae576101008083540402835291602001916108d9565b820191906000526020600020905b8154815290600101906020018083116108bc57829003601f168201915b5050505050815260200160048201805480602002602001604051908101604052809291908181526020016000905b828210156109b3578382906000526020600020018054610926906111c3565b80601f0160208091040260200160405190810160405280929190818152602001828054610952906111c3565b801561099f5780601f106109745761010080835404028352916020019161099f565b820191906000526020600020905b81548152906001019060200180831161098257829003601f168201915b505050505081526020019060010190610907565b5050505081526020016005820180546109cb906111c3565b80601f01602080910402602001604051908101604052809291908181526020018280546109f7906111c3565b8015610a445780601f10610a1957610100808354040283529160200191610a44565b820191906000526020600020905b815481529060010190602001808311610a2757829003601f168201915b50505050508152505081526020019060010190610787565b606081610a8157506040805180820190915260018152600360fc1b6020820152610b7c565b8160005b8115610aab5780610a95816111fe565b9150610aa49050600a83611168565b9150610a85565b60008167ffffffffffffffff811115610ad457634e487b7160e01b600052604160045260246000fd5b6040519080825280601f01601f191660200182016040528015610afe576020820181803683370190505b5090505b8415610b7757610b1360018361117c565b9150610b20600a86611219565b610b2b906030611150565b60f81b818381518110610b4e57634e487b7160e01b600052603260045260246000fd5b60200101906001600160f81b031916908160001a905350610b70600a86611168565b9450610b02565b925050505b919050565b828054610b8d906111c3565b90600052602060002090601f016020900481019282610baf5760008555610bf5565b82601f10610bc857805160ff1916838001178555610bf5565b82800160010185558215610bf5579182015b82811115610bf5578251825591602001919060010190610bda565b50610c01929150610c5e565b5090565b828054828255906000526020600020908101928215610c52579160200282015b82811115610c525782518051610c42918491602090910190610b81565b5091602001919060010190610c25565b50610c01929150610c73565b5b80821115610c015760008155600101610c5f565b80821115610c01576000610c878282610c90565b50600101610c73565b508054610c9c906111c3565b6000825580601f10610cae5750610ccc565b601f016020900490600052602060002090810190610ccc9190610c5e565b50565b600082601f830112610cdf578081fd5b813567ffffffffffffffff80821115610cfa57610cfa611259565b604051601f8301601f191681016020018281118282101715610d1e57610d1e611259565b604052828152848301602001861015610d35578384fd5b82602086016020830137918201602001929092529392505050565b600060208284031215610d61578081fd5b813567ffffffffffffffff811115610d77578182fd5b610d8384828501610ccf565b949350505050565b600080600060608486031215610d9f578182fd5b833567ffffffffffffffff80821115610db6578384fd5b610dc287838801610ccf565b9450602086013593506040860135915080821115610dde578283fd5b50610deb86828701610ccf565b9150509250925092565b600060208284031215610e06578081fd5b5035919050565b60008060408385031215610e1f578182fd5b82359150602083013567ffffffffffffffff811115610e3c578182fd5b610e4885828601610ccf565b9150509250929050565b60008151808452610e6a816020860160208601611193565b601f01601f19169290920160200192915050565b60007f466565646261636b20726563656976656420666f722070726f6a6563742049448252600160fd1b60208301528251610ec0816021850160208701611193565b9190910160210192915050565b60007402732bb90383937b532b1ba1031b932b0ba32b21d1605d1b82528251610efd816015850160208701611193565b9190910160150192915050565b6000602080830181845280855180835260408601915060408482028701019250838701855b82811015610f5d57603f19888603018452610f4b858351610e52565b94509285019290850190600101610f2f565b5092979650505050505050565b60208082528251828201819052600091906040908185019080840286018301878501865b8381101561106d57603f19898403018552815160c08151855288820151818a870152610fbc82870182610e52565b915050878201518886015260608083015186830382880152610fde8382610e52565b608085810151898303918a019190915280518083529194508c850193508c0191508b810284018c018d5b8281101561103657601f19868303018552611024828551610e52565b948e0194938e01939150600101611008565b5060a0958601518982038a8801529594506110518187610e52565b9a8d019a98505050948a01945050506001919091019050610f8e565b509098975050505050505050565b60006020825261108e6020830184610e52565b9392505050565b6020808252818101527f427564676574206d7573742062652067726561746572207468616e207a65726f604082015260600190565b602080825260129082015271125b9d985b1a59081c1c9bda9958dd08125160721b604082015260600190565b90815260200190565b600086825260a0602083015261111860a0830187610e52565b85604084015282810360608401526111308186610e52565b905082810360808401526111448185610e52565b98975050505050505050565b600082198211156111635761116361122d565b500190565b60008261117757611177611243565b500490565b60008282101561118e5761118e61122d565b500390565b60005b838110156111ae578181015183820152602001611196565b838111156111bd576000848401525b50505050565b6002810460018216806111d757607f821691505b602082108114156111f857634e487b7160e01b600052602260045260246000fd5b50919050565b60006000198214156112125761121261122d565b5060010190565b60008261122857611228611243565b500690565b634e487b7160e01b600052601160045260246000fd5b634e487b7160e01b600052601260045260246000fd5b634e487b7160e01b600052604160045260246000fdfea2646970667358221220baf56cd5034aafd78bfb457c23ab7d8e0cc4e912d66a4474fb05159d084d7a2064736f6c63430008000033",
  "immutableReferences": {},
  "source": "// SPDX-License-Identifier: MIT\npragma solidity ^0.8.0;\n\ncontract TFAS {\n    // Struct to represent a Project\n    struct Project {\n        uint id;           // Unique ID for the project\n        string name;       // Name of the project\n        uint budget;       // Budget allocated for the project\n        string status;     // Current status of the project (e.g., \"In Progress\", \"Completed\")\n        string[] feedbacks; // Array to store feedback for the project\n        string timeline;   // Timeline or duration of the project\n    }\n\n    // Array to store all projects\n    Project[] public projects;\n\n    // Counter to assign unique IDs to projects\n    uint public projectId;\n\n    // Array to store notifications (e.g., updates or milestones)\n    string[] public notifications;\n\n    /**\n     * @dev Constructor to initialize the contract.\n     */\n    constructor() {\n        projectId = 0; // Initialize project ID counter\n    }\n\n    /**\n     * @dev Function to create a new project.\n     * @param _name Name of the project.\n     * @param _budget Budget allocated for the project.\n     * @param _timeline Timeline or duration of the project.\n     */\n    function createProject(\n        string memory _name,\n        uint _budget,\n        string memory _timeline\n    ) public {\n        require(_budget > 0, \"Budget must be greater than zero\");\n        projectId++;\n        projects.push(Project(projectId, _name, _budget, \"In Progress\", new string[](0), _timeline));\n        addNotification(string(abi.encodePacked(\"New project created: \", _name)));\n    }\n\n    /**\n     * @dev Function to retrieve all projects.\n     * @return An array of all projects.\n     */\n    function getProjects() public view returns (Project[] memory) {\n        return projects;\n    }\n\n    /**\n     * @dev Function to submit feedback for a specific project.\n     * @param _projectId The ID of the project.\n     * @param _feedback The feedback message.\n     */\n    function submitFeedback(uint _projectId, string memory _feedback) public {\n        require(_projectId > 0 && _projectId <= projectId, \"Invalid project ID\");\n        projects[_projectId - 1].feedbacks.push(_feedback);\n        addNotification(string(abi.encodePacked(\"Feedback received for project ID \", uint2str(_projectId))));\n    }\n\n    /**\n     * @dev Function to add a notification.\n     * @param _notification The notification message.\n     */\n    function addNotification(string memory _notification) public {\n        notifications.push(_notification);\n    }\n\n    /**\n     * @dev Function to retrieve all notifications.\n     * @return An array of all notifications.\n     */\n    function getNotifications() public view returns (string[] memory) {\n        return notifications;\n    }\n\n    /**\n     * @dev Helper function to convert uint to string.\n     * @param _value The uint value to convert.\n     * @return The string representation of the uint value.\n     */\n    function uint2str(uint _value) internal pure returns (string memory) {\n        if (_value == 0) {\n            return \"0\";\n        }\n        uint temp = _value;\n        uint digits;\n        while (temp != 0) {\n            digits++;\n            temp /= 10;\n        }\n        bytes memory buffer = new bytes(digits);\n        while (_value != 0) {\n            digits -= 1;\n            buffer[digits] = bytes1(uint8(48 + uint(_value % 10)));\n            _value /= 10;\n        }\n        return string(buffer);\n    }\n}",
  "sourcePath": "/home/prashanthktgowda/academics_project/GFMS/TFAS/tfas-smart-contracts/contracts/TFAS.sol",
  "compiler": {
    "name": "solc",
    "version": "0.8.0+commit.c7dfd78e.Emscripten.clang"
  },
  "schemaVersion": "3.4.16",
  "updatedAt": "2025-03-22T12:03:44.128Z",
  "networkType": "ethereum",
  "devdoc": {
    "kind": "dev",
    "methods": {
      "addNotification(string)": {
        "details": "Function to add a notification.",
        "params": {
          "_notification": "The notification message."
        }
      },
      "constructor": {
        "details": "Constructor to initialize the contract."
      },
      "createProject(string,uint256,string)": {
        "details": "Function to create a new project.",
        "params": {
          "_budget": "Budget allocated for the project.",
          "_name": "Name of the project.",
          "_timeline": "Timeline or duration of the project."
        }
      },
      "getNotifications()": {
        "details": "Function to retrieve all notifications.",
        "returns": {
          "_0": "An array of all notifications."
        }
      },
      "getProjects()": {
        "details": "Function to retrieve all projects.",
        "returns": {
          "_0": "An array of all projects."
        }
      },
      "submitFeedback(uint256,string)": {
        "details": "Function to submit feedback for a specific project.",
        "params": {
          "_feedback": "The feedback message.",
          "_projectId": "The ID of the project."
        }
      }
    },
    "version": 1
  },
  "userdoc": {
    "kind": "user",
    "methods": {},
    "version": 1
  }
}