{"contracts/FundAllocation.sol":{"FundAllocation":{"abi":[{"inputs":[],"stateMutability":"nonpayable","type":"constructor"},{"inputs":[{"internalType":"uint256","name":"amount","type":"uint256"}],"name":"addFunds","outputs":[],"stateMutability":"nonpayable","type":"function"},{"inputs":[],"name":"admin","outputs":[{"internalType":"address","name":"","type":"address"}],"stateMutability":"view","type":"function"},{"inputs":[{"internalType":"uint256","name":"amount","type":"uint256"}],"name":"allocateFunds","outputs":[],"stateMutability":"nonpayable","type":"function"},{"inputs":[],"name":"allocatedFunds","outputs":[{"internalType":"uint256","name":"","type":"uint256"}],"stateMutability":"view","type":"function"},{"inputs":[],"name":"getTotalFunds","outputs":[{"internalType":"uint256","name":"","type":"uint256"}],"stateMutability":"view","type":"function"},{"inputs":[],"name":"projectCount","outputs":[{"internalType":"uint256","name":"","type":"uint256"}],"stateMutability":"view","type":"function"},{"inputs":[{"internalType":"uint256","name":"amount","type":"uint256"}],"name":"spendFunds","outputs":[],"stateMutability":"nonpayable","type":"function"},{"inputs":[],"name":"spentFunds","outputs":[{"internalType":"uint256","name":"","type":"uint256"}],"stateMutability":"view","type":"function"},{"inputs":[],"name":"totalAvailableFunds","outputs":[{"internalType":"uint256","name":"","type":"uint256"}],"stateMutability":"view","type":"function"}],"evm":{"bytecode":{"linkReferences":{},"object":"608060405234801561001057600080fd5b50600380546001600160a01b031916331790556000808055600181905560028190556004556103a0806100446000396000f3fe608060405234801561001057600080fd5b50600436106100935760003560e01c8063be99970511610066578063be999705146100db578063c9f8cc67146100ee578063d4cc54e414610101578063eb8bbd281461010a578063f851a4401461011257600080fd5b80631142d47f146100985780631613f09a146100b457806336fbad26146100bd5780636457d7dc146100c6575b600080fd5b6100a160025481565b6040519081526020015b60405180910390f35b6100a160005481565b6100a160045481565b6100d96100d43660046102cd565b61013d565b005b6100d96100e93660046102cd565b6101e9565b6100d96100fc3660046102cd565b610224565b6100a160015481565b6100a16102b4565b600354610125906001600160a01b031681565b6040516001600160a01b0390911681526020016100ab565b6003546001600160a01b031633146101705760405162461bcd60e51b8152600401610167906102e6565b60405180910390fd5b600254600154610180919061033e565b8111156101cf5760405162461bcd60e51b815260206004820152601c60248201527f496e73756666696369656e7420616c6c6f63617465642066756e6473000000006044820152606401610167565b80600260008282546101e19190610357565b909155505050565b6003546001600160a01b031633146102135760405162461bcd60e51b8152600401610167906102e6565b806000808282546101e19190610357565b6003546001600160a01b0316331461024e5760405162461bcd60e51b8152600401610167906102e6565b60015460005461025e919061033e565b8111156102a25760405162461bcd60e51b8152602060048201526012602482015271496e73756666696369656e742066756e647360701b6044820152606401610167565b80600160008282546101e19190610357565b60006004546000036102c65750600090565b5060005490565b6000602082840312156102df57600080fd5b5035919050565b60208082526022908201527f4f6e6c792061646d696e2063616e20706572666f726d2074686973206163746960408201526137b760f11b606082015260800190565b634e487b7160e01b600052601160045260246000fd5b8181038181111561035157610351610328565b92915050565b808201808211156103515761035161032856fea26469706673582212204892c1f6a398a74db1738777d3ee862c0f3c71e35eee8ff1173f1b5e3286c38c64736f6c63430008130033","opcodes":"PUSH1 0x80 PUSH1 0x40 MSTORE CALLVALUE DUP1 ISZERO PUSH2 0x10 JUMPI PUSH1 0x0 DUP1 REVERT JUMPDEST POP PUSH1 0x3 DUP1 SLOAD PUSH1 0x1 PUSH1 0x1 PUSH1 0xA0 SHL SUB NOT AND CALLER OR SWAP1 SSTORE PUSH1 0x0 DUP1 DUP1 SSTORE PUSH1 0x1 DUP2 SWAP1 SSTORE PUSH1 0x2 DUP2 SWAP1 SSTORE PUSH1 0x4 SSTORE PUSH2 0x3A0 DUP1 PUSH2 0x44 PUSH1 0x0 CODECOPY PUSH1 0x0 RETURN INVALID PUSH1 0x80 PUSH1 0x40 MSTORE CALLVALUE DUP1 ISZERO PUSH2 0x10 JUMPI PUSH1 0x0 DUP1 REVERT JUMPDEST POP PUSH1 0x4 CALLDATASIZE LT PUSH2 0x93 JUMPI PUSH1 0x0 CALLDATALOAD PUSH1 0xE0 SHR DUP1 PUSH4 0xBE999705 GT PUSH2 0x66 JUMPI DUP1 PUSH4 0xBE999705 EQ PUSH2 0xDB JUMPI DUP1 PUSH4 0xC9F8CC67 EQ PUSH2 0xEE JUMPI DUP1 PUSH4 0xD4CC54E4 EQ PUSH2 0x101 JUMPI DUP1 PUSH4 0xEB8BBD28 EQ PUSH2 0x10A JUMPI DUP1 PUSH4 0xF851A440 EQ PUSH2 0x112 JUMPI PUSH1 0x0 DUP1 REVERT JUMPDEST DUP1 PUSH4 0x1142D47F EQ PUSH2 0x98 JUMPI DUP1 PUSH4 0x1613F09A EQ PUSH2 0xB4 JUMPI DUP1 PUSH4 0x36FBAD26 EQ PUSH2 0xBD JUMPI DUP1 PUSH4 0x6457D7DC EQ PUSH2 0xC6 JUMPI JUMPDEST PUSH1 0x0 DUP1 REVERT JUMPDEST PUSH2 0xA1 PUSH1 0x2 SLOAD DUP2 JUMP JUMPDEST PUSH1 0x40 MLOAD SWAP1 DUP2 MSTORE PUSH1 0x20 ADD JUMPDEST PUSH1 0x40 MLOAD DUP1 SWAP2 SUB SWAP1 RETURN JUMPDEST PUSH2 0xA1 PUSH1 0x0 SLOAD DUP2 JUMP JUMPDEST PUSH2 0xA1 PUSH1 0x4 SLOAD DUP2 JUMP JUMPDEST PUSH2 0xD9 PUSH2 0xD4 CALLDATASIZE PUSH1 0x4 PUSH2 0x2CD JUMP JUMPDEST PUSH2 0x13D JUMP JUMPDEST STOP JUMPDEST PUSH2 0xD9 PUSH2 0xE9 CALLDATASIZE PUSH1 0x4 PUSH2 0x2CD JUMP JUMPDEST PUSH2 0x1E9 JUMP JUMPDEST PUSH2 0xD9 PUSH2 0xFC CALLDATASIZE PUSH1 0x4 PUSH2 0x2CD JUMP JUMPDEST PUSH2 0x224 JUMP JUMPDEST PUSH2 0xA1 PUSH1 0x1 SLOAD DUP2 JUMP JUMPDEST PUSH2 0xA1 PUSH2 0x2B4 JUMP JUMPDEST PUSH1 0x3 SLOAD PUSH2 0x125 SWAP1 PUSH1 0x1 PUSH1 0x1 PUSH1 0xA0 SHL SUB AND DUP2 JUMP JUMPDEST PUSH1 0x40 MLOAD PUSH1 0x1 PUSH1 0x1 PUSH1 0xA0 SHL SUB SWAP1 SWAP2 AND DUP2 MSTORE PUSH1 0x20 ADD PUSH2 0xAB JUMP JUMPDEST PUSH1 0x3 SLOAD PUSH1 0x1 PUSH1 0x1 PUSH1 0xA0 SHL SUB AND CALLER EQ PUSH2 0x170 JUMPI PUSH1 0x40 MLOAD PUSH3 0x461BCD PUSH1 0xE5 SHL DUP2 MSTORE PUSH1 0x4 ADD PUSH2 0x167 SWAP1 PUSH2 0x2E6 JUMP JUMPDEST PUSH1 0x40 MLOAD DUP1 SWAP2 SUB SWAP1 REVERT JUMPDEST PUSH1 0x2 SLOAD PUSH1 0x1 SLOAD PUSH2 0x180 SWAP2 SWAP1 PUSH2 0x33E JUMP JUMPDEST DUP2 GT ISZERO PUSH2 0x1CF JUMPI PUSH1 0x40 MLOAD PUSH3 0x461BCD PUSH1 0xE5 SHL DUP2 MSTORE PUSH1 0x20 PUSH1 0x4 DUP3 ADD MSTORE PUSH1 0x1C PUSH1 0x24 DUP3 ADD MSTORE PUSH32 0x496E73756666696369656E7420616C6C6F63617465642066756E647300000000 PUSH1 0x44 DUP3 ADD MSTORE PUSH1 0x64 ADD PUSH2 0x167 JUMP JUMPDEST DUP1 PUSH1 0x2 PUSH1 0x0 DUP3 DUP3 SLOAD PUSH2 0x1E1 SWAP2 SWAP1 PUSH2 0x357 JUMP JUMPDEST SWAP1 SWAP2 SSTORE POP POP POP JUMP JUMPDEST PUSH1 0x3 SLOAD PUSH1 0x1 PUSH1 0x1 PUSH1 0xA0 SHL SUB AND CALLER EQ PUSH2 0x213 JUMPI PUSH1 0x40 MLOAD PUSH3 0x461BCD PUSH1 0xE5 SHL DUP2 MSTORE PUSH1 0x4 ADD PUSH2 0x167 SWAP1 PUSH2 0x2E6 JUMP JUMPDEST DUP1 PUSH1 0x0 DUP1 DUP3 DUP3 SLOAD PUSH2 0x1E1 SWAP2 SWAP1 PUSH2 0x357 JUMP JUMPDEST PUSH1 0x3 SLOAD PUSH1 0x1 PUSH1 0x1 PUSH1 0xA0 SHL SUB AND CALLER EQ PUSH2 0x24E JUMPI PUSH1 0x40 MLOAD PUSH3 0x461BCD PUSH1 0xE5 SHL DUP2 MSTORE PUSH1 0x4 ADD PUSH2 0x167 SWAP1 PUSH2 0x2E6 JUMP JUMPDEST PUSH1 0x1 SLOAD PUSH1 0x0 SLOAD PUSH2 0x25E SWAP2 SWAP1 PUSH2 0x33E JUMP JUMPDEST DUP2 GT ISZERO PUSH2 0x2A2 JUMPI PUSH1 0x40 MLOAD PUSH3 0x461BCD PUSH1 0xE5 SHL DUP2 MSTORE PUSH1 0x20 PUSH1 0x4 DUP3 ADD MSTORE PUSH1 0x12 PUSH1 0x24 DUP3 ADD MSTORE PUSH18 0x496E73756666696369656E742066756E6473 PUSH1 0x70 SHL PUSH1 0x44 DUP3 ADD MSTORE PUSH1 0x64 ADD PUSH2 0x167 JUMP JUMPDEST DUP1 PUSH1 0x1 PUSH1 0x0 DUP3 DUP3 SLOAD PUSH2 0x1E1 SWAP2 SWAP1 PUSH2 0x357 JUMP JUMPDEST PUSH1 0x0 PUSH1 0x4 SLOAD PUSH1 0x0 SUB PUSH2 0x2C6 JUMPI POP PUSH1 0x0 SWAP1 JUMP JUMPDEST POP PUSH1 0x0 SLOAD SWAP1 JUMP JUMPDEST PUSH1 0x0 PUSH1 0x20 DUP3 DUP5 SUB SLT ISZERO PUSH2 0x2DF JUMPI PUSH1 0x0 DUP1 REVERT JUMPDEST POP CALLDATALOAD SWAP2 SWAP1 POP JUMP JUMPDEST PUSH1 0x20 DUP1 DUP3 MSTORE PUSH1 0x22 SWAP1 DUP3 ADD MSTORE PUSH32 0x4F6E6C792061646D696E2063616E20706572666F726D20746869732061637469 PUSH1 0x40 DUP3 ADD MSTORE PUSH2 0x37B7 PUSH1 0xF1 SHL PUSH1 0x60 DUP3 ADD MSTORE PUSH1 0x80 ADD SWAP1 JUMP JUMPDEST PUSH4 0x4E487B71 PUSH1 0xE0 SHL PUSH1 0x0 MSTORE PUSH1 0x11 PUSH1 0x4 MSTORE PUSH1 0x24 PUSH1 0x0 REVERT JUMPDEST DUP2 DUP2 SUB DUP2 DUP2 GT ISZERO PUSH2 0x351 JUMPI PUSH2 0x351 PUSH2 0x328 JUMP JUMPDEST SWAP3 SWAP2 POP POP JUMP JUMPDEST DUP1 DUP3 ADD DUP1 DUP3 GT ISZERO PUSH2 0x351 JUMPI PUSH2 0x351 PUSH2 0x328 JUMP INVALID LOG2 PUSH5 0x6970667358 0x22 SLT KECCAK256 BASEFEE SWAP3 0xC1 0xF6 LOG3 SWAP9 0xA7 0x4D 0xB1 PUSH20 0x8777D3EE862C0F3C71E35EEE8FF1173F1B5E3286 0xC3 DUP13 PUSH5 0x736F6C6343 STOP ADDMOD SGT STOP CALLER "},"methodIdentifiers":{"addFunds(uint256)":"be999705","admin()":"f851a440","allocateFunds(uint256)":"c9f8cc67","allocatedFunds()":"d4cc54e4","getTotalFunds()":"eb8bbd28","projectCount()":"36fbad26","spendFunds(uint256)":"6457d7dc","spentFunds()":"1142d47f","totalAvailableFunds()":"1613f09a"}}}}}