{
  "_format": "hh-sol-artifact-1",
  "contractName": "FundAllocation",
  "sourceName": "contracts/FundAllocation.sol",
  "abi": [
    {
      "inputs": [],
      "stateMutability": "nonpayable",
      "type": "constructor"
    },
    {
      "inputs": [
        {
          "internalType": "uint256",
          "name": "amount",
          "type": "uint256"
        }
      ],
      "name": "addFunds",
      "outputs": [],
      "stateMutability": "nonpayable",
      "type": "function"
    },
    {
      "inputs": [],
      "name": "admin",
      "outputs": [
        {
          "internalType": "address",
          "name": "",
          "type": "address"
        }
      ],
      "stateMutability": "view",
      "type": "function"
    },
    {
      "inputs": [
        {
          "internalType": "uint256",
          "name": "amount",
          "type": "uint256"
        }
      ],
      "name": "allocateFunds",
      "outputs": [],
      "stateMutability": "nonpayable",
      "type": "function"
    },
    {
      "inputs": [],
      "name": "allocatedFunds",
      "outputs": [
        {
          "internalType": "uint256",
          "name": "",
          "type": "uint256"
        }
      ],
      "stateMutability": "view",
      "type": "function"
    },
    {
      "inputs": [
        {
          "internalType": "uint256",
          "name": "amount",
          "type": "uint256"
        }
      ],
      "name": "spendFunds",
      "outputs": [],
      "stateMutability": "nonpayable",
      "type": "function"
    },
    {
      "inputs": [],
      "name": "spentFunds",
      "outputs": [
        {
          "internalType": "uint256",
          "name": "",
          "type": "uint256"
        }
      ],
      "stateMutability": "view",
      "type": "function"
    },
    {
      "inputs": [],
      "name": "totalAvailableFunds",
      "outputs": [
        {
          "internalType": "uint256",
          "name": "",
          "type": "uint256"
        }
      ],
      "stateMutability": "view",
      "type": "function"
    },
    {
      "inputs": [],
      "name": "totalFunds",
      "outputs": [
        {
          "internalType": "uint256",
          "name": "",
          "type": "uint256"
        }
      ],
      "stateMutability": "view",
      "type": "function"
    }
  ],
  "bytecode": "0x608060405234801561001057600080fd5b50600380546001600160a01b03191633179055600080805560018190556002556103738061003f6000396000f3fe608060405234801561001057600080fd5b50600436106100885760003560e01c8063be9997051161005b578063be999705146100cf578063c9f8cc67146100e2578063d4cc54e4146100f5578063f851a440146100fe57600080fd5b80631142d47f1461008d5780631613f09a146100a95780636457d7dc146100b2578063968ed600146100c7575b600080fd5b61009660025481565b6040519081526020015b60405180910390f35b61009660005481565b6100c56100c03660046102a0565b610129565b005b600054610096565b6100c56100dd3660046102a0565b6101d5565b6100c56100f03660046102a0565b610210565b61009660015481565b600354610111906001600160a01b031681565b6040516001600160a01b0390911681526020016100a0565b6003546001600160a01b0316331461015c5760405162461bcd60e51b8152600401610153906102b9565b60405180910390fd5b60025460015461016c9190610311565b8111156101bb5760405162461bcd60e51b815260206004820152601c60248201527f496e73756666696369656e7420616c6c6f63617465642066756e6473000000006044820152606401610153565b80600260008282546101cd919061032a565b909155505050565b6003546001600160a01b031633146101ff5760405162461bcd60e51b8152600401610153906102b9565b806000808282546101cd919061032a565b6003546001600160a01b0316331461023a5760405162461bcd60e51b8152600401610153906102b9565b60015460005461024a9190610311565b81111561028e5760405162461bcd60e51b8152602060048201526012602482015271496e73756666696369656e742066756e647360701b6044820152606401610153565b80600160008282546101cd919061032a565b6000602082840312156102b257600080fd5b5035919050565b60208082526022908201527f4f6e6c792061646d696e2063616e20706572666f726d2074686973206163746960408201526137b760f11b606082015260800190565b634e487b7160e01b600052601160045260246000fd5b81810381811115610324576103246102fb565b92915050565b80820180821115610324576103246102fb56fea2646970667358221220b309343ba95148a8c0b6ac6830c129a3ff951850caf1a4a84da866ae3e0f186d64736f6c63430008130033",
  "linkReferences": {},
  "deployedLinkReferences": {}
}