{
    "contractName": "TFAS",
    "abi": [
        {
            "inputs": [],
            "stateMutability": "nonpayable",
            "type": "constructor"
        },
        {
            "inputs": [
                {
                    "internalType": "uint256",
                    "name": "",
                    "type": "uint256"
                }
            ],
            "name": "notifications",
            "outputs": [
                {
                    "internalType": "string",
                    "name": "",
                    "type": "string"
                }
            ],
            "stateMutability": "view",
            "type": "function"
        },
        {
            "inputs": [],
            "name": "projectId",
            "outputs": [
                {
                    "internalType": "uint256",
                    "name": "",
                    "type": "uint256"
                }
            ],
            "stateMutability": "view",
            "type": "function"
        },
        {
            "inputs": [
                {
                    "internalType": "uint256",
                    "name": "",
                    "type": "uint256"
                }
            ],
            "name": "projects",
            "outputs": [
                {
                    "internalType": "uint256",
                    "name": "id",
                    "type": "uint256"
                },
                {
                    "internalType": "string",
                    "name": "name",
                    "type": "string"
                },
                {
                    "internalType": "uint256",
                    "name": "budget",
                    "type": "uint256"
                },
                {
                    "internalType": "string",
                    "name": "status",
                    "type": "string"
                },
                {
                    "internalType": "string",
                    "name": "timeline",
                    "type": "string"
                }
            ],
            "stateMutability": "view",
            "type": "function"
        },
        {
            "inputs": [
                {
                    "internalType": "string",
                    "name": "_name",
                    "type": "string"
                },
                {
                    "internalType": "uint256",
                    "name": "_budget",
                    "type": "uint256"
                },
                {
                    "internalType": "string",
                    "name": "_timeline",
                    "type": "string"
                }
            ],
            "name": "createProject",
            "outputs": [],
            "stateMutability": "nonpayable",
            "type": "function"
        },
        {
            "inputs": [],
            "name": "getProjects",
            "outputs": [
                {
                    "components": [
                        {
                            "internalType": "uint256",
                            "name": "id",
                            "type": "uint256"
                        },
                        {
                            "internalType": "string",
                            "name": "name",
                            "type": "string"
                        },
                        {
                            "internalType": "uint256",
                            "name": "budget",
                            "type": "uint256"
                        },
                        {
                            "internalType": "string",
                            "name": "status",
                            "type": "string"
                        },
                        {
                            "internalType": "string[]",
                            "name": "feedbacks",
                            "type": "string[]"
                        },
                        {
                            "internalType": "string",
                            "name": "timeline",
                            "type": "string"
                        }
                    ],
                    "internalType": "struct TFAS.Project[]",
                    "name": "",
                    "type": "tuple[]"
                }
            ],
            "stateMutability": "view",
            "type": "function"
        },
        {
            "inputs": [
                {
                    "internalType": "uint256",
                    "name": "_projectId",
                    "type": "uint256"
                },
                {
                    "internalType": "string",
                    "name": "_feedback",
                    "type": "string"
                }
            ],
            "name": "submitFeedback",
            "outputs": [],
            "stateMutability": "nonpayable",
            "type": "function"
        },
        {
            "inputs": [
                {
                    "internalType": "string",
                    "name": "_notification",
                    "type": "string"
                }
            ],
            "name": "addNotification",
            "outputs": [],
            "stateMutability": "nonpayable",
            "type": "function"
        },
        {
            "inputs": [],
            "name": "getNotifications",
            "outputs": [
                {
                    "internalType": "string[]",
                    "name": "",
                    "type": "string[]"
                }
            ],
            "stateMutability": "view",
            "type": "function"
        }
    ],
    "bytecode": "0x608060405234801561001057600080fd5b5060006001819055506119a4806100286000396000f3fe608060405234801561001057600080fd5b50600436106100885760003560e01c80635dbb137b1161005b5780635dbb137b1461012b578063759c3dc514610147578063cf48bd2c14610163578063dcc601281461018157610088565b8063107046bd1461008d57806320b0c9d6146100c157806334c1f944146100dd5780633fafa1271461010d575b600080fd5b6100a760048036038101906100a29190610fc5565b61019f565b6040516100b8959493929190611553565b60405180910390f35b6100db60048036038101906100d69190610fee565b61037d565b005b6100f760048036038101906100f29190610fc5565b610493565b60405161010491906114d6565b60405180910390f35b61011561053f565b6040516101229190611538565b60405180910390f35b61014560048036038101906101409190610f05565b610545565b005b610161600480360381019061015c9190610f46565b610584565b005b61016b610799565b6040516101789190611492565b60405180910390f35b610189610872565b60405161019691906114b4565b60405180910390f35b600081815481106101af57600080fd5b90600052602060002090600602016000915090508060000154908060010180546101d8906117de565b80601f0160208091040260200160405190810160405280929190818152602001828054610204906117de565b80156102515780601f1061022657610100808354040283529160200191610251565b820191906000526020600020905b81548152906001019060200180831161023457829003601f168201915b50505050509080600201549080600301805461026c906117de565b80601f0160208091040260200160405190810160405280929190818152602001828054610298906117de565b80156102e55780601f106102ba576101008083540402835291602001916102e5565b820191906000526020600020905b8154815290600101906020018083116102c857829003601f168201915b5050505050908060050180546102fa906117de565b80601f0160208091040260200160405190810160405280929190818152602001828054610326906117de565b80156103735780601f1061034857610100808354040283529160200191610373565b820191906000526020600020905b81548152906001019060200180831161035657829003601f168201915b5050505050905085565b60008211801561038f57506001548211155b6103ce576040517f08c379a00000000000000000000000000000000000000000000000000000000081526004016103c590611518565b60405180910390fd5b60006001836103dd919061175e565b81548110610414577f4e487b7100000000000000000000000000000000000000000000000000000000600052603260045260246000fd5b90600052602060002090600602016004018190806001815401808255809150506001900390600052602060002001600090919091909150908051906020019061045e929190610d21565b5061048f61046b83610b74565b60405160200161047b919061144e565b604051602081830303815290604052610545565b5050565b600281815481106104a357600080fd5b9060005260206000200160009150905080546104be906117de565b80601f01602080910402602001604051908101604052809291908181526020018280546104ea906117de565b80156105375780601f1061050c57610100808354040283529160200191610537565b820191906000526020600020905b81548152906001019060200180831161051a57829003601f168201915b505050505081565b60015481565b600281908060018154018082558091505060019003906000526020600020016000909190919091509080519060200190610580929190610d21565b5050565b600082116105c7576040517f08c379a00000000000000000000000000000000000000000000000000000000081526004016105be906114f8565b60405180910390fd5b600160008154809291906105da90611810565b919050555060006040518060c0016040528060015481526020018581526020018481526020016040518060400160405280600b81526020017f496e2050726f67726573730000000000000000000000000000000000000000008152508152602001600067ffffffffffffffff81111561067c577f4e487b7100000000000000000000000000000000000000000000000000000000600052604160045260246000fd5b6040519080825280602002602001820160405280156106af57816020015b606081526020019060019003908161069a5790505b508152602001838152509080600181540180825580915050600190039060005260206000209060060201600090919091909150600082015181600001556020820151816001019080519060200190610708929190610d21565b5060408201518160020155606082015181600301908051906020019061072f929190610d21565b50608082015181600401908051906020019061074c929190610da7565b5060a0820151816005019080519060200190610769929190610d21565b505050610794836040516020016107809190611470565b604051602081830303815290604052610545565b505050565b60606002805480602002602001604051908101604052809291908181526020016000905b828210156108695783829060005260206000200180546107dc906117de565b80601f0160208091040260200160405190810160405280929190818152602001828054610808906117de565b80156108555780601f1061082a57610100808354040283529160200191610855565b820191906000526020600020905b81548152906001019060200180831161083857829003601f168201915b5050505050815260200190600101906107bd565b50505050905090565b60606000805480602002602001604051908101604052809291908181526020016000905b82821015610b6b57838290600052602060002090600602016040518060c0016040529081600082015481526020016001820180546108d3906117de565b80601f01602080910402602001604051908101604052809291908181526020018280546108ff906117de565b801561094c5780601f106109215761010080835404028352916020019161094c565b820191906000526020600020905b81548152906001019060200180831161092f57829003601f168201915b505050505081526020016002820154815260200160038201805461096f906117de565b80601f016020809104026020016040519081016040528092919081815260200182805461099b906117de565b80156109e85780601f106109bd576101008083540402835291602001916109e8565b820191906000526020600020905b8154815290600101906020018083116109cb57829003601f168201915b5050505050815260200160048201805480602002602001604051908101604052809291908181526020016000905b82821015610ac2578382906000526020600020018054610a35906117de565b80601f0160208091040260200160405190810160405280929190818152602001828054610a61906117de565b8015610aae5780601f10610a8357610100808354040283529160200191610aae565b820191906000526020600020905b815481529060010190602001808311610a9157829003601f168201915b505050505081526020019060010190610a16565b505050508152602001600582018054610ada906117de565b80601f0160208091040260200160405190810160405280929190818152602001828054610b06906117de565b8015610b535780601f10610b2857610100808354040283529160200191610b53565b820191906000526020600020905b815481529060010190602001808311610b3657829003601f168201915b50505050508152505081526020019060010190610896565b50505050905090565b60606000821415610bbc576040518060400160405280600181526020017f30000000000000000000000000000000000000000000000000000000000000008152509050610d1c565b600082905060005b60008214610bee578080610bd790611810565b915050600a82610be7919061172d565b9150610bc4565b60008167ffffffffffffffff811115610c30577f4e487b7100000000000000000000000000000000000000000000000000000000600052604160045260246000fd5b6040519080825280601f01601f191660200182016040528015610c625781602001600182028036833780820191505090505b5090505b60008514610d1557600182610c7b919061175e565b9150600a85610c8a9190611859565b6030610c9691906116d7565b60f81b818381518110610cd2577f4e487b7100000000000000000000000000000000000000000000000000000000600052603260045260246000fd5b60200101907effffffffffffffffffffffffffffffffffffffffffffffffffffffffffffff1916908160001a905350600a85610d0e919061172d565b9450610c66565b8093505050505b919050565b828054610d2d906117de565b90600052602060002090601f016020900481019282610d4f5760008555610d96565b82601f10610d6857805160ff1916838001178555610d96565b82800160010185558215610d96579182015b82811115610d95578251825591602001919060010190610d7a565b5b509050610da39190610e07565b5090565b828054828255906000526020600020908101928215610df6579160200282015b82811115610df5578251829080519060200190610de5929190610d21565b5091602001919060010190610dc7565b5b509050610e039190610e24565b5090565b5b80821115610e20576000816000905550600101610e08565b5090565b5b80821115610e445760008181610e3b9190610e48565b50600101610e25565b5090565b508054610e54906117de565b6000825580601f10610e665750610e85565b601f016020900490600052602060002090810190610e849190610e07565b5b50565b6000610e9b610e96846115ec565b6115bb565b905082815260208101848484011115610eb357600080fd5b610ebe84828561179c565b509392505050565b600082601f830112610ed757600080fd5b8135610ee7848260208601610e88565b91505092915050565b600081359050610eff81611957565b92915050565b600060208284031215610f1757600080fd5b600082013567ffffffffffffffff811115610f3157600080fd5b610f3d84828501610ec6565b91505092915050565b600080600060608486031215610f5b57600080fd5b600084013567ffffffffffffffff811115610f7557600080fd5b610f8186828701610ec6565b9350506020610f9286828701610ef0565b925050604084013567ffffffffffffffff811115610faf57600080fd5b610fbb86828701610ec6565b9150509250925092565b600060208284031215610fd757600080fd5b6000610fe584828501610ef0565b91505092915050565b6000806040838503121561100157600080fd5b600061100f85828601610ef0565b925050602083013567ffffffffffffffff81111561102c57600080fd5b61103885828601610ec6565b9150509250929050565b600061104e83836111c9565b905092915050565b60006110628383611392565b905092915050565b60006110758261163c565b61107f8185611677565b9350836020820285016110918561161c565b8060005b858110156110cd57848403895281516110ae8582611042565b94506110b98361165d565b925060208a01995050600181019050611095565b50829750879550505050505092915050565b60006110ea8261163c565b6110f48185611688565b9350836020820285016111068561161c565b8060005b8581101561114257848403895281516111238582611042565b945061112e8361165d565b925060208a0199505060018101905061110a565b50829750879550505050505092915050565b600061115f82611647565b6111698185611699565b93508360208202850161117b8561162c565b8060005b858110156111b757848403895281516111988582611056565b94506111a38361166a565b925060208a0199505060018101905061117f565b50829750879550505050505092915050565b60006111d482611652565b6111de81856116aa565b93506111ee8185602086016117ab565b6111f781611946565b840191505092915050565b600061120d82611652565b61121781856116bb565b93506112278185602086016117ab565b61123081611946565b840191505092915050565b600061124682611652565b61125081856116cc565b93506112608185602086016117ab565b80840191505092915050565b60006112796021836116cc565b91507f466565646261636b20726563656976656420666f722070726f6a65637420494460008301527f20000000000000000000000000000000000000000000000000000000000000006020830152602182019050919050565b60006112df6020836116bb565b91507f427564676574206d7573742062652067726561746572207468616e207a65726f6000830152602082019050919050565b600061131f6015836116cc565b91507f4e65772070726f6a65637420637265617465643a2000000000000000000000006000830152601582019050919050565b600061135f6012836116bb565b91507f496e76616c69642070726f6a65637420494400000000000000000000000000006000830152602082019050919050565b600060c0830160008301516113aa6000860182611430565b50602083015184820360208601526113c282826111c9565b91505060408301516113d76040860182611430565b50606083015184820360608601526113ef82826111c9565b91505060808301518482036080860152611409828261106a565b91505060a083015184820360a086015261142382826111c9565b9150508091505092915050565b61143981611792565b82525050565b61144881611792565b82525050565b60006114598261126c565b9150611465828461123b565b915081905092915050565b600061147b82611312565b9150611487828461123b565b915081905092915050565b600060208201905081810360008301526114ac81846110df565b905092915050565b600060208201905081810360008301526114ce8184611154565b905092915050565b600060208201905081810360008301526114f08184611202565b905092915050565b60006020820190508181036000830152611511816112d2565b9050919050565b6000602082019050818103600083015261153181611352565b9050919050565b600060208201905061154d600083018461143f565b92915050565b600060a082019050611568600083018861143f565b818103602083015261157a8187611202565b9050611589604083018661143f565b818103606083015261159b8185611202565b905081810360808301526115af8184611202565b90509695505050505050565b6000604051905081810181811067ffffffffffffffff821117156115e2576115e1611917565b5b8060405250919050565b600067ffffffffffffffff82111561160757611606611917565b5b601f19601f8301169050602081019050919050565b6000819050602082019050919050565b6000819050602082019050919050565b600081519050919050565b600081519050919050565b600081519050919050565b6000602082019050919050565b6000602082019050919050565b600082825260208201905092915050565b600082825260208201905092915050565b600082825260208201905092915050565b600082825260208201905092915050565b600082825260208201905092915050565b600081905092915050565b60006116e282611792565b91506116ed83611792565b9250827fffffffffffffffffffffffffffffffffffffffffffffffffffffffffffffffff038211156117225761172161188a565b5b828201905092915050565b600061173882611792565b915061174383611792565b925082611753576117526118b9565b5b828204905092915050565b600061176982611792565b915061177483611792565b9250828210156117875761178661188a565b5b828203905092915050565b6000819050919050565b82818337600083830152505050565b60005b838110156117c95780820151818401526020810190506117ae565b838111156117d8576000848401525b50505050565b600060028204905060018216806117f657607f821691505b6020821081141561180a576118096118e8565b5b50919050565b600061181b82611792565b91507fffffffffffffffffffffffffffffffffffffffffffffffffffffffffffffffff82141561184e5761184d61188a565b5b600182019050919050565b600061186482611792565b915061186f83611792565b92508261187f5761187e6118b9565b5b828206905092915050565b7f4e487b7100000000000000000000000000000000000000000000000000000000600052601160045260246000fd5b7f4e487b7100000000000000000000000000000000000000000000000000000000600052601260045260246000fd5b7f4e487b7100000000000000000000000000000000000000000000000000000000600052602260045260246000fd5b7f4e487b7100000000000000000000000000000000000000000000000000000000600052604160045260246000fd5b6000601f19601f8301169050919050565b61196081611792565b811461196b57600080fd5b5056fea26469706673582212204e683485ca7f4c1471c84187d574661d000500cb5024fdf1dca9ca6a0b81530a64736f6c63430008000033",
    "immutableReferences": {},
    "source": "// SPDX-License-Identifier: MIT\npragma solidity ^0.8.0;\n\ncontract TFAS {\n    // Struct to represent a Project\n    struct Project {\n        uint id;           // Unique ID for the project\n        string name;       // Name of the project\n        uint budget;       // Budget allocated for the project\n        string status;     // Current status of the project (e.g., \"In Progress\", \"Completed\")\n        string[] feedbacks; // Array to store feedback for the project\n        string timeline;   // Timeline or duration of the project\n    }\n\n    // Array to store all projects\n    Project[] public projects;\n\n    // Counter to assign unique IDs to projects\n    uint public projectId;\n\n    // Array to store notifications (e.g., updates or milestones)\n    string[] public notifications;\n\n    /**\n     * @dev Constructor to initialize the contract.\n     */\n    constructor() {\n        projectId = 0; // Initialize project ID counter\n    }\n\n    /**\n     * @dev Function to create a new project.\n     * @param _name Name of the project.\n     * @param _budget Budget allocated for the project.\n     * @param _timeline Timeline or duration of the project.\n     */\n    function createProject(\n        string memory _name,\n        uint _budget,\n        string memory _timeline\n    ) public {\n        require(_budget > 0, \"Budget must be greater than zero\");\n        projectId++;\n        projects.push(Project(projectId, _name, _budget, \"In Progress\", new string[](0), _timeline));\n        addNotification(string(abi.encodePacked(\"New project created: \", _name)));\n    }\n\n    /**\n     * @dev Function to retrieve all projects.\n     * @return An array of all projects.\n     */\n    function getProjects() public view returns (Project[] memory) {\n        return projects;\n    }\n\n    /**\n     * @dev Function to submit feedback for a specific project.\n     * @param _projectId The ID of the project.\n     * @param _feedback The feedback message.\n     */\n    function submitFeedback(uint _projectId, string memory _feedback) public {\n        require(_projectId > 0 && _projectId <= projectId, \"Invalid project ID\");\n        projects[_projectId - 1].feedbacks.push(_feedback);\n        addNotification(string(abi.encodePacked(\"Feedback received for project ID \", uint2str(_projectId))));\n    }\n\n    /**\n     * @dev Function to add a notification.\n     * @param _notification The notification message.\n     */\n    function addNotification(string memory _notification) public {\n        notifications.push(_notification);\n    }\n\n    /**\n     * @dev Function to retrieve all notifications.\n     * @return An array of all notifications.\n     */\n    function getNotifications() public view returns (string[] memory) {\n        return notifications;\n    }\n\n    /**\n     * @dev Helper function to convert uint to string.\n     * @param _value The uint value to convert.\n     * @return The string representation of the uint value.\n     */\n    function uint2str(uint _value) internal pure returns (string memory) {\n        if (_value == 0) {\n            return \"0\";\n        }\n        uint temp = _value;\n        uint digits;\n        while (temp != 0) {\n            digits++;\n            temp /= 10;\n        }\n        bytes memory buffer = new bytes(digits);\n        while (_value != 0) {\n            digits -= 1;\n            buffer[digits] = bytes1(uint8(48 + uint(_value % 10)));\n            _value /= 10;\n        }\n        return string(buffer);\n    }\n}",
    "sourcePath": "/home/prashanthktgowda/academics_project/GFMS/TFAS/tfas-smart-contracts/contracts/TFAS.sol",
    "compiler": {
        "name": "solc",
        "version": "0.8.0+commit.c7dfd78e.Emscripten.clang"
    },
    "schemaVersion": "3.4.16",
    "updatedAt": "2025-03-22T11:11:09.231Z",
    "devdoc": {
        "kind": "dev",
        "methods": {
            "addNotification(string)": {
                "details": "Function to add a notification.",
                "params": {
                    "_notification": "The notification message."
                }
            },
            "constructor": {
                "details": "Constructor to initialize the contract."
            },
            "createProject(string,uint256,string)": {
                "details": "Function to create a new project.",
                "params": {
                    "_budget": "Budget allocated for the project.",
                    "_name": "Name of the project.",
                    "_timeline": "Timeline or duration of the project."
                }
            },
            "getNotifications()": {
                "details": "Function to retrieve all notifications.",
                "returns": {
                    "_0": "An array of all notifications."
                }
            },
            "getProjects()": {
                "details": "Function to retrieve all projects.",
                "returns": {
                    "_0": "An array of all projects."
                }
            },
            "submitFeedback(uint256,string)": {
                "details": "Function to submit feedback for a specific project.",
                "params": {
                    "_feedback": "The feedback message.",
                    "_projectId": "The ID of the project."
                }
            }
        },
        "version": 1
    },
    "userdoc": {
        "kind": "user",
        "methods": {},
        "version": 1
    }
}