{
  "_format": "hh-sol-artifact-1",
  "contractName": "TFAS",
  "sourceName": "contracts/TFAS.sol",
  "abi": [
    {
      "inputs": [],
      "stateMutability": "nonpayable",
      "type": "constructor"
    },
    {
      "anonymous": false,
      "inputs": [
        {
          "indexed": true,
          "internalType": "uint256",
          "name": "projectId",
          "type": "uint256"
        },
        {
          "indexed": false,
          "internalType": "string",
          "name": "message",
          "type": "string"
        },
        {
          "indexed": false,
          "internalType": "address",
          "name": "requester",
          "type": "address"
        }
      ],
      "name": "ClarificationRequested",
      "type": "event"
    },
    {
      "anonymous": false,
      "inputs": [
        {
          "indexed": true,
          "internalType": "uint256",
          "name": "projectId",
          "type": "uint256"
        },
        {
          "indexed": false,
          "internalType": "string",
          "name": "feedback",
          "type": "string"
        }
      ],
      "name": "FeedbackSubmitted",
      "type": "event"
    },
    {
      "anonymous": false,
      "inputs": [
        {
          "indexed": true,
          "internalType": "uint256",
          "name": "projectId",
          "type": "uint256"
        },
        {
          "indexed": false,
          "internalType": "uint256",
          "name": "milestoneId",
          "type": "uint256"
        },
        {
          "indexed": false,
          "internalType": "uint256",
          "name": "amount",
          "type": "uint256"
        },
        {
          "indexed": false,
          "internalType": "address",
          "name": "contractor",
          "type": "address"
        }
      ],
      "name": "InvoiceGenerated",
      "type": "event"
    },
    {
      "anonymous": false,
      "inputs": [
        {
          "indexed": true,
          "internalType": "uint256",
          "name": "projectId",
          "type": "uint256"
        },
        {
          "indexed": false,
          "internalType": "string",
          "name": "name",
          "type": "string"
        },
        {
          "indexed": false,
          "internalType": "address",
          "name": "owner",
          "type": "address"
        }
      ],
      "name": "ProjectCreated",
      "type": "event"
    },
    {
      "anonymous": false,
      "inputs": [
        {
          "indexed": true,
          "internalType": "uint256",
          "name": "projectId",
          "type": "uint256"
        },
        {
          "indexed": false,
          "internalType": "string",
          "name": "newStatus",
          "type": "string"
        }
      ],
      "name": "ProjectStatusUpdated",
      "type": "event"
    },
    {
      "inputs": [
        {
          "internalType": "string",
          "name": "_notification",
          "type": "string"
        }
      ],
      "name": "addNotification",
      "outputs": [],
      "stateMutability": "nonpayable",
      "type": "function"
    },
    {
      "inputs": [
        {
          "internalType": "string",
          "name": "_name",
          "type": "string"
        },
        {
          "internalType": "uint256",
          "name": "_budget",
          "type": "uint256"
        },
        {
          "internalType": "string",
          "name": "_timeline",
          "type": "string"
        }
      ],
      "name": "createProject",
      "outputs": [],
      "stateMutability": "nonpayable",
      "type": "function"
    },
    {
      "inputs": [
        {
          "internalType": "uint256",
          "name": "_projectId",
          "type": "uint256"
        },
        {
          "internalType": "uint256",
          "name": "_milestoneId",
          "type": "uint256"
        },
        {
          "internalType": "uint256",
          "name": "_amount",
          "type": "uint256"
        }
      ],
      "name": "generateInvoice",
      "outputs": [],
      "stateMutability": "nonpayable",
      "type": "function"
    },
    {
      "inputs": [],
      "name": "getNotifications",
      "outputs": [
        {
          "internalType": "string[]",
          "name": "",
          "type": "string[]"
        }
      ],
      "stateMutability": "view",
      "type": "function"
    },
    {
      "inputs": [
        {
          "internalType": "uint256",
          "name": "_projectId",
          "type": "uint256"
        }
      ],
      "name": "getProjectById",
      "outputs": [
        {
          "components": [
            {
              "internalType": "uint256",
              "name": "id",
              "type": "uint256"
            },
            {
              "internalType": "string",
              "name": "name",
              "type": "string"
            },
            {
              "internalType": "uint256",
              "name": "budget",
              "type": "uint256"
            },
            {
              "internalType": "string",
              "name": "status",
              "type": "string"
            },
            {
              "internalType": "string[]",
              "name": "feedbacks",
              "type": "string[]"
            },
            {
              "internalType": "string",
              "name": "timeline",
              "type": "string"
            },
            {
              "internalType": "address",
              "name": "owner",
              "type": "address"
            }
          ],
          "internalType": "struct TFAS.Project",
          "name": "",
          "type": "tuple"
        }
      ],
      "stateMutability": "view",
      "type": "function"
    },
    {
      "inputs": [
        {
          "internalType": "uint256",
          "name": "_projectId",
          "type": "uint256"
        }
      ],
      "name": "getProjectFeedbacks",
      "outputs": [
        {
          "internalType": "string[]",
          "name": "",
          "type": "string[]"
        }
      ],
      "stateMutability": "view",
      "type": "function"
    },
    {
      "inputs": [],
      "name": "getProjects",
      "outputs": [
        {
          "components": [
            {
              "internalType": "uint256",
              "name": "id",
              "type": "uint256"
            },
            {
              "internalType": "string",
              "name": "name",
              "type": "string"
            },
            {
              "internalType": "uint256",
              "name": "budget",
              "type": "uint256"
            },
            {
              "internalType": "string",
              "name": "status",
              "type": "string"
            },
            {
              "internalType": "string[]",
              "name": "feedbacks",
              "type": "string[]"
            },
            {
              "internalType": "string",
              "name": "timeline",
              "type": "string"
            },
            {
              "internalType": "address",
              "name": "owner",
              "type": "address"
            }
          ],
          "internalType": "struct TFAS.Project[]",
          "name": "",
          "type": "tuple[]"
        }
      ],
      "stateMutability": "view",
      "type": "function"
    },
    {
      "inputs": [
        {
          "internalType": "address",
          "name": "contractor",
          "type": "address"
        }
      ],
      "name": "getReceivedFunds",
      "outputs": [
        {
          "internalType": "uint256",
          "name": "",
          "type": "uint256"
        }
      ],
      "stateMutability": "view",
      "type": "function"
    },
    {
      "inputs": [
        {
          "internalType": "uint256",
          "name": "",
          "type": "uint256"
        }
      ],
      "name": "notifications",
      "outputs": [
        {
          "internalType": "string",
          "name": "",
          "type": "string"
        }
      ],
      "stateMutability": "view",
      "type": "function"
    },
    {
      "inputs": [],
      "name": "projectId",
      "outputs": [
        {
          "internalType": "uint256",
          "name": "",
          "type": "uint256"
        }
      ],
      "stateMutability": "view",
      "type": "function"
    },
    {
      "inputs": [
        {
          "internalType": "uint256",
          "name": "",
          "type": "uint256"
        }
      ],
      "name": "projectOwners",
      "outputs": [
        {
          "internalType": "address",
          "name": "",
          "type": "address"
        }
      ],
      "stateMutability": "view",
      "type": "function"
    },
    {
      "inputs": [
        {
          "internalType": "uint256",
          "name": "",
          "type": "uint256"
        }
      ],
      "name": "projects",
      "outputs": [
        {
          "internalType": "uint256",
          "name": "id",
          "type": "uint256"
        },
        {
          "internalType": "string",
          "name": "name",
          "type": "string"
        },
        {
          "internalType": "uint256",
          "name": "budget",
          "type": "uint256"
        },
        {
          "internalType": "string",
          "name": "status",
          "type": "string"
        },
        {
          "internalType": "string",
          "name": "timeline",
          "type": "string"
        },
        {
          "internalType": "address",
          "name": "owner",
          "type": "address"
        }
      ],
      "stateMutability": "view",
      "type": "function"
    },
    {
      "inputs": [
        {
          "internalType": "address",
          "name": "",
          "type": "address"
        }
      ],
      "name": "receivedFunds",
      "outputs": [
        {
          "internalType": "uint256",
          "name": "",
          "type": "uint256"
        }
      ],
      "stateMutability": "view",
      "type": "function"
    },
    {
      "inputs": [
        {
          "internalType": "uint256",
          "name": "_projectId",
          "type": "uint256"
        },
        {
          "internalType": "string",
          "name": "_message",
          "type": "string"
        }
      ],
      "name": "requestClarification",
      "outputs": [],
      "stateMutability": "nonpayable",
      "type": "function"
    },
    {
      "inputs": [
        {
          "internalType": "uint256",
          "name": "_projectId",
          "type": "uint256"
        },
        {
          "internalType": "string",
          "name": "_feedback",
          "type": "string"
        }
      ],
      "name": "submitFeedback",
      "outputs": [],
      "stateMutability": "nonpayable",
      "type": "function"
    },
    {
      "inputs": [],
      "name": "totalFunds",
      "outputs": [
        {
          "internalType": "uint256",
          "name": "",
          "type": "uint256"
        }
      ],
      "stateMutability": "view",
      "type": "function"
    },
    {
      "inputs": [
        {
          "internalType": "uint256",
          "name": "_projectId",
          "type": "uint256"
        },
        {
          "internalType": "string",
          "name": "_newStatus",
          "type": "string"
        }
      ],
      "name": "updateProjectStatus",
      "outputs": [],
      "stateMutability": "nonpayable",
      "type": "function"
    }
  ],
  "bytecode": "0x608060405234801561001057600080fd5b506000600155611fb8806100256000396000f3fe608060405234801561001057600080fd5b506004361061010b5760003560e01c80638c486c26116100a2578063bb0e9df611610071578063bb0e9df61461025f578063bee5cdca14610272578063cf48bd2c14610292578063dcc601281461029a578063fe18f82a146102af57600080fd5b80638c486c26146102045780638e2ee04514610217578063968ed600146102375780639e302e7e1461023f57600080fd5b8063404609a1116100de578063404609a11461018a57806353339ba01461019d5780635dbb137b146101de578063759c3dc5146101f157600080fd5b8063107046bd1461011057806320b0c9d61461013e57806334c1f944146101535780633fafa12714610173575b600080fd5b61012361011e36600461182d565b6102c2565b60405161013596959493929190611896565b60405180910390f35b61015161014c36600461199a565b6104ab565b005b61016661016136600461182d565b6105bb565b60405161013591906119e1565b61017c60015481565b604051908152602001610135565b61015161019836600461199a565b610667565b6101c66101ab36600461182d565b6003602052600090815260409020546001600160a01b031681565b6040516001600160a01b039091168152602001610135565b6101516101ec3660046119fb565b610718565b6101516101ff366004611a30565b610758565b610151610212366004611a9d565b610a3c565b61017c610225366004611ac9565b60046020526000908152604090205481565b61017c610b79565b61025261024d36600461182d565b610c39565b6040516101359190611af2565b61015161026d36600461199a565b610d6e565b61028561028036600461182d565b610e98565b6040516101359190611c32565b610252611203565b6102a26112dc565b6040516101359190611c45565b61017c6102bd366004611ac9565b6115eb565b600081815481106102d257600080fd5b600091825260209091206007909102018054600182018054919350906102f790611c9a565b80601f016020809104026020016040519081016040528092919081815260200182805461032390611c9a565b80156103705780601f1061034557610100808354040283529160200191610370565b820191906000526020600020905b81548152906001019060200180831161035357829003601f168201915b50505050509080600201549080600301805461038b90611c9a565b80601f01602080910402602001604051908101604052809291908181526020018280546103b790611c9a565b80156104045780601f106103d957610100808354040283529160200191610404565b820191906000526020600020905b8154815290600101906020018083116103e757829003601f168201915b50505050509080600501805461041990611c9a565b80601f016020809104026020016040519081016040528092919081815260200182805461044590611c9a565b80156104925780601f1061046757610100808354040283529160200191610492565b820191906000526020600020905b81548152906001019060200180831161047557829003601f168201915b505050600690930154919250506001600160a01b031686565b6000821180156104bd57506001548211155b6104e25760405162461bcd60e51b81526004016104d990611cce565b60405180910390fd5b60008151116105335760405162461bcd60e51b815260206004820152601860248201527f466565646261636b2063616e6e6f7420626520656d707479000000000000000060448201526064016104d9565b6000610540600184611d10565b8154811061055057610550611d29565b60009182526020808320600460079093020191909101805460018101825590835291200161057e8282611d8e565b50817fbb56b609b340d0a962d17e4cd04e703c902d99db310e4e5e55b0632cf1a4800d826040516105af91906119e1565b60405180910390a25050565b600281815481106105cb57600080fd5b9060005260206000200160009150905080546105e690611c9a565b80601f016020809104026020016040519081016040528092919081815260200182805461061290611c9a565b801561065f5780601f106106345761010080835404028352916020019161065f565b820191906000526020600020905b81548152906001019060200180831161064257829003601f168201915b505050505081565b60008211801561067957506001548211155b6106955760405162461bcd60e51b81526004016104d990611cce565b60008151116106e65760405162461bcd60e51b815260206004820152601760248201527f4d6573736167652063616e6e6f7420626520656d70747900000000000000000060448201526064016104d9565b817f4e8c03bb61e42e074f1d1e64552a2496787f0c2e318989fb30c58b2a22adff8282336040516105af929190611e4e565b600280546001810182556000919091527f405787fa12a823e0f2b7631cc41b3ba8828b3321ca811111fa75cd3aa3bb5ace016107548282611d8e565b5050565b60008351116107a95760405162461bcd60e51b815260206004820152601c60248201527f50726f6a656374206e616d652063616e6e6f7420626520656d7074790000000060448201526064016104d9565b600082116107f95760405162461bcd60e51b815260206004820181905260248201527f427564676574206d7573742062652067726561746572207468616e207a65726f60448201526064016104d9565b600081511161084a5760405162461bcd60e51b815260206004820152601860248201527f54696d656c696e652063616e6e6f7420626520656d707479000000000000000060448201526064016104d9565b6001805490600061085a83611e78565b919050555060006040518060e0016040528060015481526020018581526020018481526020016040518060400160405280600b81526020016a496e2050726f677265737360a81b8152508152602001600067ffffffffffffffff8111156108c3576108c36118f7565b6040519080825280602002602001820160405280156108f657816020015b60608152602001906001900390816108e15790505b508152602080820185905233604090920191909152825460018181018555600094855293829020835160079092020190815590820151919290919082019061093e9082611d8e565b50604082015160028201556060820151600382019061095d9082611d8e565b5060808201518051610979916004840191602090910190611768565b5060a0820151600582019061098e9082611d8e565b5060c09190910151600690910180546001600160a01b039092166001600160a01b031992831617905560015460009081526003602090815260409182902080549093163317909255516109fb916109e791869101611e91565b604051602081830303815290604052610718565b6001547fc0c54fed07481d0998e1446b2c13759606bf4f26b78306307413ac4c4309aa828433604051610a2f929190611e4e565b60405180910390a2505050565b600083118015610a4e57506001548311155b610a6a5760405162461bcd60e51b81526004016104d990611cce565b60008111610aba5760405162461bcd60e51b815260206004820181905260248201527f416d6f756e74206d7573742062652067726561746572207468616e207a65726f60448201526064016104d9565b6000838152600360205260409020546001600160a01b03163314610b375760405162461bcd60e51b815260206004820152602e60248201527f4f6e6c79207468652070726f6a656374206f776e65722063616e2067656e657260448201526d61746520616e20696e766f69636560901b60648201526084016104d9565b6040805183815260208101839052339181019190915283907fb774f9d18ee287e2bc8153a7d37916cd245aebc5454829b578e10f97f459372a90606001610a2f565b60008054610be15760405162461bcd60e51b815260206004820152602f60248201527f4e6f2070726f6a6563747320617661696c61626c6520746f2063616c63756c6160448201526e3a32903a37ba30b610333ab732399760891b60648201526084016104d9565b6000805b600054811015610c335760008181548110610c0257610c02611d29565b90600052602060002090600702016002015482610c1f9190611ece565b915080610c2b81611e78565b915050610be5565b50919050565b6060600082118015610c4d57506001548211155b610c695760405162461bcd60e51b81526004016104d990611cce565b6000610c76600184611d10565b81548110610c8657610c86611d29565b9060005260206000209060070201600401805480602002602001604051908101604052809291908181526020016000905b82821015610d63578382906000526020600020018054610cd690611c9a565b80601f0160208091040260200160405190810160405280929190818152602001828054610d0290611c9a565b8015610d4f5780601f10610d2457610100808354040283529160200191610d4f565b820191906000526020600020905b815481529060010190602001808311610d3257829003601f168201915b505050505081526020019060010190610cb7565b505050509050919050565b600082118015610d8057506001548211155b610d9c5760405162461bcd60e51b81526004016104d990611cce565b6000828152600360205260409020546001600160a01b03163314610e0e5760405162461bcd60e51b8152602060048201526024808201527f4f6e6c792070726f6a656374206f776e65722063616e207570646174652073746044820152636174757360e01b60648201526084016104d9565b806000610e1c600185611d10565b81548110610e2c57610e2c611d29565b90600052602060002090600702016003019081610e499190611d8e565b50610e68610e568361165f565b826040516020016109e7929190611ee1565b817f09bdf34fcd9f237be9688c8c80767133cee7573a842b75f28ef1501bfb6954e2826040516105af91906119e1565b610ee16040518060e0016040528060008152602001606081526020016000815260200160608152602001606081526020016060815260200160006001600160a01b031681525090565b600082118015610ef357506001548211155b610f0f5760405162461bcd60e51b81526004016104d990611cce565b6000610f1c600184611d10565b81548110610f2c57610f2c611d29565b90600052602060002090600702016040518060e001604052908160008201548152602001600182018054610f5f90611c9a565b80601f0160208091040260200160405190810160405280929190818152602001828054610f8b90611c9a565b8015610fd85780601f10610fad57610100808354040283529160200191610fd8565b820191906000526020600020905b815481529060010190602001808311610fbb57829003601f168201915b5050505050815260200160028201548152602001600382018054610ffb90611c9a565b80601f016020809104026020016040519081016040528092919081815260200182805461102790611c9a565b80156110745780601f1061104957610100808354040283529160200191611074565b820191906000526020600020905b81548152906001019060200180831161105757829003601f168201915b5050505050815260200160048201805480602002602001604051908101604052809291908181526020016000905b8282101561114e5783829060005260206000200180546110c190611c9a565b80601f01602080910402602001604051908101604052809291908181526020018280546110ed90611c9a565b801561113a5780601f1061110f5761010080835404028352916020019161113a565b820191906000526020600020905b81548152906001019060200180831161111d57829003601f168201915b5050505050815260200190600101906110a2565b50505050815260200160058201805461116690611c9a565b80601f016020809104026020016040519081016040528092919081815260200182805461119290611c9a565b80156111df5780601f106111b4576101008083540402835291602001916111df565b820191906000526020600020905b8154815290600101906020018083116111c257829003601f168201915b5050509183525050600691909101546001600160a01b031660209091015292915050565b60606002805480602002602001604051908101604052809291908181526020016000905b828210156112d357838290600052602060002001805461124690611c9a565b80601f016020809104026020016040519081016040528092919081815260200182805461127290611c9a565b80156112bf5780601f10611294576101008083540402835291602001916112bf565b820191906000526020600020905b8154815290600101906020018083116112a257829003601f168201915b505050505081526020019060010190611227565b50505050905090565b60606000805480602002602001604051908101604052809291908181526020016000905b828210156112d357838290600052602060002090600702016040518060e00160405290816000820154815260200160018201805461133d90611c9a565b80601f016020809104026020016040519081016040528092919081815260200182805461136990611c9a565b80156113b65780601f1061138b576101008083540402835291602001916113b6565b820191906000526020600020905b81548152906001019060200180831161139957829003601f168201915b50505050508152602001600282015481526020016003820180546113d990611c9a565b80601f016020809104026020016040519081016040528092919081815260200182805461140590611c9a565b80156114525780601f1061142757610100808354040283529160200191611452565b820191906000526020600020905b81548152906001019060200180831161143557829003601f168201915b5050505050815260200160048201805480602002602001604051908101604052809291908181526020016000905b8282101561152c57838290600052602060002001805461149f90611c9a565b80601f01602080910402602001604051908101604052809291908181526020018280546114cb90611c9a565b80156115185780601f106114ed57610100808354040283529160200191611518565b820191906000526020600020905b8154815290600101906020018083116114fb57829003601f168201915b505050505081526020019060010190611480565b50505050815260200160058201805461154490611c9a565b80601f016020809104026020016040519081016040528092919081815260200182805461157090611c9a565b80156115bd5780601f10611592576101008083540402835291602001916115bd565b820191906000526020600020905b8154815290600101906020018083116115a057829003601f168201915b5050509183525050600691909101546001600160a01b03166020918201529082526001929092019101611300565b60006001600160a01b0382166116435760405162461bcd60e51b815260206004820152601a60248201527f496e76616c696420636f6e74726163746f72206164647265737300000000000060448201526064016104d9565b506001600160a01b031660009081526004602052604090205490565b6060816000036116865750506040805180820190915260018152600360fc1b602082015290565b8160005b81156116b0578061169a81611e78565b91506116a99050600a83611f5a565b915061168a565b60008167ffffffffffffffff8111156116cb576116cb6118f7565b6040519080825280601f01601f1916602001820160405280156116f5576020820181803683370190505b5090505b84156117605761170a600183611d10565b9150611717600a86611f6e565b611722906030611ece565b60f81b81838151811061173757611737611d29565b60200101906001600160f81b031916908160001a905350611759600a86611f5a565b94506116f9565b949350505050565b8280548282559060005260206000209081019282156117ae579160200282015b828111156117ae578251829061179e9082611d8e565b5091602001919060010190611788565b506117ba9291506117be565b5090565b808211156117ba5760006117d282826117db565b506001016117be565b5080546117e790611c9a565b6000825580601f106117f7575050565b601f0160209004906000526020600020908101906118159190611818565b50565b5b808211156117ba5760008155600101611819565b60006020828403121561183f57600080fd5b5035919050565b60005b83811015611861578181015183820152602001611849565b50506000910152565b60008151808452611882816020860160208601611846565b601f01601f19169290920160200192915050565b86815260c0602082015260006118af60c083018861186a565b86604084015282810360608401526118c7818761186a565b905082810360808401526118db818661186a565b91505060018060a01b03831660a0830152979650505050505050565b634e487b7160e01b600052604160045260246000fd5b600082601f83011261191e57600080fd5b813567ffffffffffffffff80821115611939576119396118f7565b604051601f8301601f19908116603f01168101908282118183101715611961576119616118f7565b8160405283815286602085880101111561197a57600080fd5b836020870160208301376000602085830101528094505050505092915050565b600080604083850312156119ad57600080fd5b82359150602083013567ffffffffffffffff8111156119cb57600080fd5b6119d78582860161190d565b9150509250929050565b6020815260006119f4602083018461186a565b9392505050565b600060208284031215611a0d57600080fd5b813567ffffffffffffffff811115611a2457600080fd5b6117608482850161190d565b600080600060608486031215611a4557600080fd5b833567ffffffffffffffff80821115611a5d57600080fd5b611a698783880161190d565b9450602086013593506040860135915080821115611a8657600080fd5b50611a938682870161190d565b9150509250925092565b600080600060608486031215611ab257600080fd5b505081359360208301359350604090920135919050565b600060208284031215611adb57600080fd5b81356001600160a01b03811681146119f457600080fd5b6000602080830181845280855180835260408601915060408160051b870101925083870160005b82811015611b4757603f19888603018452611b3585835161186a565b94509285019290850190600101611b19565b5092979650505050505050565b80518252600060208083015160e082860152611b7360e086018261186a565b90506040840151604086015260608401518582036060870152611b96828261186a565b915050608084015185820360808701528181518084528484019150848160051b850101858401935060005b82811015611bef57601f19868303018452611bdd82865161186a565b94870194938701939150600101611bc1565b5060a0880151955088810360a08a0152611c09818761186a565b9550505050505060c0830151611c2a60c08601826001600160a01b03169052565b509392505050565b6020815260006119f46020830184611b54565b6000602080830181845280855180835260408601915060408160051b870101925083870160005b82811015611b4757603f19888603018452611c88858351611b54565b94509285019290850190600101611c6c565b600181811c90821680611cae57607f821691505b602082108103610c3357634e487b7160e01b600052602260045260246000fd5b602080825260129082015271125b9d985b1a59081c1c9bda9958dd08125160721b604082015260600190565b634e487b7160e01b600052601160045260246000fd5b81810381811115611d2357611d23611cfa565b92915050565b634e487b7160e01b600052603260045260246000fd5b601f821115611d8957600081815260208120601f850160051c81016020861015611d665750805b601f850160051c820191505b81811015611d8557828155600101611d72565b5050505b505050565b815167ffffffffffffffff811115611da857611da86118f7565b611dbc81611db68454611c9a565b84611d3f565b602080601f831160018114611df15760008415611dd95750858301515b600019600386901b1c1916600185901b178555611d85565b600085815260208120601f198616915b82811015611e2057888601518255948401946001909101908401611e01565b5085821015611e3e5787850151600019600388901b60f8161c191681555b5050505050600190811b01905550565b604081526000611e61604083018561186a565b905060018060a01b03831660208301529392505050565b600060018201611e8a57611e8a611cfa565b5060010190565b7402732bb90383937b532b1ba1031b932b0ba32b21d1605d1b815260008251611ec1816015850160208701611846565b9190910160150192915050565b80820180821115611d2357611d23611cfa565b670283937b532b1ba160c51b815260008351611f04816008850160208801611846565b7301039ba30ba3ab9903ab83230ba32b2103a379d160651b6008918401918201528351611f3881601c840160208801611846565b01601c01949350505050565b634e487b7160e01b600052601260045260246000fd5b600082611f6957611f69611f44565b500490565b600082611f7d57611f7d611f44565b50069056fea26469706673582212203d12593ed23e61bcfc118dee059957223747a84221c12962122f41707deb7feb64736f6c63430008130033",
  "linkReferences": {},
  "deployedLinkReferences": {}
}