{
  "_format": "hh-sol-artifact-1",
  "contractName": "TFAS",
  "sourceName": "contracts/TFAS.sol",
  "abi": [
    {
      "inputs": [],
      "stateMutability": "nonpayable",
      "type": "constructor"
    },
    {
      "anonymous": false,
      "inputs": [
        {
          "indexed": true,
          "internalType": "uint256",
          "name": "projectId",
          "type": "uint256"
        },
        {
          "indexed": false,
          "internalType": "string",
          "name": "feedback",
          "type": "string"
        }
      ],
      "name": "FeedbackSubmitted",
      "type": "event"
    },
    {
      "anonymous": false,
      "inputs": [
        {
          "indexed": true,
          "internalType": "uint256",
          "name": "projectId",
          "type": "uint256"
        },
        {
          "indexed": false,
          "internalType": "string",
          "name": "name",
          "type": "string"
        },
        {
          "indexed": false,
          "internalType": "address",
          "name": "owner",
          "type": "address"
        }
      ],
      "name": "ProjectCreated",
      "type": "event"
    },
    {
      "anonymous": false,
      "inputs": [
        {
          "indexed": true,
          "internalType": "uint256",
          "name": "projectId",
          "type": "uint256"
        },
        {
          "indexed": false,
          "internalType": "string",
          "name": "newStatus",
          "type": "string"
        }
      ],
      "name": "ProjectStatusUpdated",
      "type": "event"
    },
    {
      "inputs": [
        {
          "internalType": "string",
          "name": "_notification",
          "type": "string"
        }
      ],
      "name": "addNotification",
      "outputs": [],
      "stateMutability": "nonpayable",
      "type": "function"
    },
    {
      "inputs": [
        {
          "internalType": "string",
          "name": "_name",
          "type": "string"
        },
        {
          "internalType": "uint256",
          "name": "_budget",
          "type": "uint256"
        },
        {
          "internalType": "string",
          "name": "_timeline",
          "type": "string"
        }
      ],
      "name": "createProject",
      "outputs": [],
      "stateMutability": "nonpayable",
      "type": "function"
    },
    {
      "inputs": [],
      "name": "getNotifications",
      "outputs": [
        {
          "internalType": "string[]",
          "name": "",
          "type": "string[]"
        }
      ],
      "stateMutability": "view",
      "type": "function"
    },
    {
      "inputs": [
        {
          "internalType": "uint256",
          "name": "_projectId",
          "type": "uint256"
        }
      ],
      "name": "getProjectById",
      "outputs": [
        {
          "components": [
            {
              "internalType": "uint256",
              "name": "id",
              "type": "uint256"
            },
            {
              "internalType": "string",
              "name": "name",
              "type": "string"
            },
            {
              "internalType": "uint256",
              "name": "budget",
              "type": "uint256"
            },
            {
              "internalType": "string",
              "name": "status",
              "type": "string"
            },
            {
              "internalType": "string[]",
              "name": "feedbacks",
              "type": "string[]"
            },
            {
              "internalType": "string",
              "name": "timeline",
              "type": "string"
            },
            {
              "internalType": "address",
              "name": "owner",
              "type": "address"
            }
          ],
          "internalType": "struct TFAS.Project",
          "name": "",
          "type": "tuple"
        }
      ],
      "stateMutability": "view",
      "type": "function"
    },
    {
      "inputs": [
        {
          "internalType": "uint256",
          "name": "_projectId",
          "type": "uint256"
        }
      ],
      "name": "getProjectFeedbacks",
      "outputs": [
        {
          "internalType": "string[]",
          "name": "",
          "type": "string[]"
        }
      ],
      "stateMutability": "view",
      "type": "function"
    },
    {
      "inputs": [],
      "name": "getProjects",
      "outputs": [
        {
          "components": [
            {
              "internalType": "uint256",
              "name": "id",
              "type": "uint256"
            },
            {
              "internalType": "string",
              "name": "name",
              "type": "string"
            },
            {
              "internalType": "uint256",
              "name": "budget",
              "type": "uint256"
            },
            {
              "internalType": "string",
              "name": "status",
              "type": "string"
            },
            {
              "internalType": "string[]",
              "name": "feedbacks",
              "type": "string[]"
            },
            {
              "internalType": "string",
              "name": "timeline",
              "type": "string"
            },
            {
              "internalType": "address",
              "name": "owner",
              "type": "address"
            }
          ],
          "internalType": "struct TFAS.Project[]",
          "name": "",
          "type": "tuple[]"
        }
      ],
      "stateMutability": "view",
      "type": "function"
    },
    {
      "inputs": [
        {
          "internalType": "uint256",
          "name": "",
          "type": "uint256"
        }
      ],
      "name": "notifications",
      "outputs": [
        {
          "internalType": "string",
          "name": "",
          "type": "string"
        }
      ],
      "stateMutability": "view",
      "type": "function"
    },
    {
      "inputs": [],
      "name": "projectId",
      "outputs": [
        {
          "internalType": "uint256",
          "name": "",
          "type": "uint256"
        }
      ],
      "stateMutability": "view",
      "type": "function"
    },
    {
      "inputs": [
        {
          "internalType": "uint256",
          "name": "",
          "type": "uint256"
        }
      ],
      "name": "projectOwners",
      "outputs": [
        {
          "internalType": "address",
          "name": "",
          "type": "address"
        }
      ],
      "stateMutability": "view",
      "type": "function"
    },
    {
      "inputs": [
        {
          "internalType": "uint256",
          "name": "",
          "type": "uint256"
        }
      ],
      "name": "projects",
      "outputs": [
        {
          "internalType": "uint256",
          "name": "id",
          "type": "uint256"
        },
        {
          "internalType": "string",
          "name": "name",
          "type": "string"
        },
        {
          "internalType": "uint256",
          "name": "budget",
          "type": "uint256"
        },
        {
          "internalType": "string",
          "name": "status",
          "type": "string"
        },
        {
          "internalType": "string",
          "name": "timeline",
          "type": "string"
        },
        {
          "internalType": "address",
          "name": "owner",
          "type": "address"
        }
      ],
      "stateMutability": "view",
      "type": "function"
    },
    {
      "inputs": [
        {
          "internalType": "uint256",
          "name": "_projectId",
          "type": "uint256"
        },
        {
          "internalType": "string",
          "name": "_feedback",
          "type": "string"
        }
      ],
      "name": "submitFeedback",
      "outputs": [],
      "stateMutability": "nonpayable",
      "type": "function"
    },
    {
      "inputs": [],
      "name": "totalFunds",
      "outputs": [
        {
          "internalType": "uint256",
          "name": "",
          "type": "uint256"
        }
      ],
      "stateMutability": "view",
      "type": "function"
    },
    {
      "inputs": [
        {
          "internalType": "uint256",
          "name": "_projectId",
          "type": "uint256"
        },
        {
          "internalType": "string",
          "name": "_newStatus",
          "type": "string"
        }
      ],
      "name": "updateProjectStatus",
      "outputs": [],
      "stateMutability": "nonpayable",
      "type": "function"
    },
    {
      "inputs": [
        {
          "internalType": "uint256",
          "name": "_projectId",
          "type": "uint256"
        },
        {
          "internalType": "uint256",
          "name": "_milestoneId",
          "type": "uint256"
        },
        {
          "internalType": "uint256",
          "name": "_amount",
          "type": "uint256"
        }
      ],
      "name": "generateInvoice",
      "outputs": [],
      "stateMutability": "nonpayable",
      "type": "function"
    }
  ],
  "bytecode": "0x608060405234801561001057600080fd5b506000600155611b7d806100256000396000f3fe608060405234801561001057600080fd5b50600436106100cf5760003560e01c8063759c3dc51161008c578063bb0e9df611610066578063bb0e9df6146101dd578063bee5cdca146101f0578063cf48bd2c14610210578063dcc601281461021857600080fd5b8063759c3dc5146101a2578063968ed600146101b55780639e302e7e146101bd57600080fd5b8063107046bd146100d457806320b0c9d61461010257806334c1f944146101175780633fafa1271461013757806353339ba01461014e5780635dbb137b1461018f575b600080fd5b6100e76100e23660046113f8565b61022d565b6040516100f996959493929190611461565b60405180910390f35b610115610110366004611565565b610416565b005b61012a6101253660046113f8565b610505565b6040516100f991906115ac565b61014060015481565b6040519081526020016100f9565b61017761015c3660046113f8565b6003602052600090815260409020546001600160a01b031681565b6040516001600160a01b0390911681526020016100f9565b61011561019d3660046115c6565b6105b1565b6101156101b03660046115fb565b6105f1565b61014061081f565b6101d06101cb3660046113f8565b610878565b6040516100f99190611668565b6101156101eb366004611565565b6109ad565b6102036101fe3660046113f8565b610ad7565b6040516100f991906117a8565b6101d0610e42565b610220610f1b565b6040516100f991906117bb565b6000818154811061023d57600080fd5b6000918252602090912060079091020180546001820180549193509061026290611810565b80601f016020809104026020016040519081016040528092919081815260200182805461028e90611810565b80156102db5780601f106102b0576101008083540402835291602001916102db565b820191906000526020600020905b8154815290600101906020018083116102be57829003601f168201915b5050505050908060020154908060030180546102f690611810565b80601f016020809104026020016040519081016040528092919081815260200182805461032290611810565b801561036f5780601f106103445761010080835404028352916020019161036f565b820191906000526020600020905b81548152906001019060200180831161035257829003601f168201915b50505050509080600501805461038490611810565b80601f01602080910402602001604051908101604052809291908181526020018280546103b090611810565b80156103fd5780601f106103d2576101008083540402835291602001916103fd565b820191906000526020600020905b8154815290600101906020018083116103e057829003601f168201915b505050600690930154919250506001600160a01b031686565b60008211801561042857506001548211155b61044d5760405162461bcd60e51b815260040161044490611844565b60405180910390fd5b600061045a600184611886565b8154811061046a5761046a61189f565b6000918252602080832060046007909302019190910180546001810182559083529120016104988282611904565b506104c96104a58361122a565b6040516020016104b591906119c4565b6040516020818303038152906040526105b1565b817fbb56b609b340d0a962d17e4cd04e703c902d99db310e4e5e55b0632cf1a4800d826040516104f991906115ac565b60405180910390a25050565b6002818154811061051557600080fd5b90600052602060002001600091509050805461053090611810565b80601f016020809104026020016040519081016040528092919081815260200182805461055c90611810565b80156105a95780601f1061057e576101008083540402835291602001916105a9565b820191906000526020600020905b81548152906001019060200180831161058c57829003601f168201915b505050505081565b600280546001810182556000919091527f405787fa12a823e0f2b7631cc41b3ba8828b3321ca811111fa75cd3aa3bb5ace016105ed8282611904565b5050565b600082116106415760405162461bcd60e51b815260206004820181905260248201527f427564676574206d7573742062652067726561746572207468616e207a65726f6044820152606401610444565b6001805490600061065183611a13565b919050555060006040518060e0016040528060015481526020018581526020018481526020016040518060400160405280600b81526020016a496e2050726f677265737360a81b8152508152602001600067ffffffffffffffff8111156106ba576106ba6114c2565b6040519080825280602002602001820160405280156106ed57816020015b60608152602001906001900390816106d85790505b50815260208082018590523360409092019190915282546001818101855560009485529382902083516007909202019081559082015191929091908201906107359082611904565b5060408201516002820155606082015160038201906107549082611904565b5060808201518051610770916004840191602090910190611333565b5060a082015160058201906107859082611904565b5060c09190910151600690910180546001600160a01b039092166001600160a01b031992831617905560015460009081526003602090815260409182902080549093163317909255516107de916104b591869101611a2c565b6001547fc0c54fed07481d0998e1446b2c13759606bf4f26b78306307413ac4c4309aa828433604051610812929190611a69565b60405180910390a2505050565b600080805b60005481101561087257600081815481106108415761084161189f565b9060005260206000209060070201600201548261085e9190611a93565b91508061086a81611a13565b915050610824565b50919050565b606060008211801561088c57506001548211155b6108a85760405162461bcd60e51b815260040161044490611844565b60006108b5600184611886565b815481106108c5576108c561189f565b9060005260206000209060070201600401805480602002602001604051908101604052809291908181526020016000905b828210156109a257838290600052602060002001805461091590611810565b80601f016020809104026020016040519081016040528092919081815260200182805461094190611810565b801561098e5780601f106109635761010080835404028352916020019161098e565b820191906000526020600020905b81548152906001019060200180831161097157829003601f168201915b5050505050815260200190600101906108f6565b505050509050919050565b6000821180156109bf57506001548211155b6109db5760405162461bcd60e51b815260040161044490611844565b6000828152600360205260409020546001600160a01b03163314610a4d5760405162461bcd60e51b8152602060048201526024808201527f4f6e6c792070726f6a656374206f776e65722063616e207570646174652073746044820152636174757360e01b6064820152608401610444565b806000610a5b600185611886565b81548110610a6b57610a6b61189f565b90600052602060002090600702016003019081610a889190611904565b50610aa7610a958361122a565b826040516020016104b5929190611aa6565b817f09bdf34fcd9f237be9688c8c80767133cee7573a842b75f28ef1501bfb6954e2826040516104f991906115ac565b610b206040518060e0016040528060008152602001606081526020016000815260200160608152602001606081526020016060815260200160006001600160a01b031681525090565b600082118015610b3257506001548211155b610b4e5760405162461bcd60e51b815260040161044490611844565b6000610b5b600184611886565b81548110610b6b57610b6b61189f565b90600052602060002090600702016040518060e001604052908160008201548152602001600182018054610b9e90611810565b80601f0160208091040260200160405190810160405280929190818152602001828054610bca90611810565b8015610c175780601f10610bec57610100808354040283529160200191610c17565b820191906000526020600020905b815481529060010190602001808311610bfa57829003601f168201915b5050505050815260200160028201548152602001600382018054610c3a90611810565b80601f0160208091040260200160405190810160405280929190818152602001828054610c6690611810565b8015610cb35780601f10610c8857610100808354040283529160200191610cb3565b820191906000526020600020905b815481529060010190602001808311610c9657829003601f168201915b5050505050815260200160048201805480602002602001604051908101604052809291908181526020016000905b82821015610d8d578382906000526020600020018054610d0090611810565b80601f0160208091040260200160405190810160405280929190818152602001828054610d2c90611810565b8015610d795780601f10610d4e57610100808354040283529160200191610d79565b820191906000526020600020905b815481529060010190602001808311610d5c57829003601f168201915b505050505081526020019060010190610ce1565b505050508152602001600582018054610da590611810565b80601f0160208091040260200160405190810160405280929190818152602001828054610dd190611810565b8015610e1e5780601f10610df357610100808354040283529160200191610e1e565b820191906000526020600020905b815481529060010190602001808311610e0157829003601f168201915b5050509183525050600691909101546001600160a01b031660209091015292915050565b60606002805480602002602001604051908101604052809291908181526020016000905b82821015610f12578382906000526020600020018054610e8590611810565b80601f0160208091040260200160405190810160405280929190818152602001828054610eb190611810565b8015610efe5780601f10610ed357610100808354040283529160200191610efe565b820191906000526020600020905b815481529060010190602001808311610ee157829003601f168201915b505050505081526020019060010190610e66565b50505050905090565b60606000805480602002602001604051908101604052809291908181526020016000905b82821015610f1257838290600052602060002090600702016040518060e001604052908160008201548152602001600182018054610f7c90611810565b80601f0160208091040260200160405190810160405280929190818152602001828054610fa890611810565b8015610ff55780601f10610fca57610100808354040283529160200191610ff5565b820191906000526020600020905b815481529060010190602001808311610fd857829003601f168201915b505050505081526020016002820154815260200160038201805461101890611810565b80601f016020809104026020016040519081016040528092919081815260200182805461104490611810565b80156110915780601f1061106657610100808354040283529160200191611091565b820191906000526020600020905b81548152906001019060200180831161107457829003601f168201915b5050505050815260200160048201805480602002602001604051908101604052809291908181526020016000905b8282101561116b5783829060005260206000200180546110de90611810565b80601f016020809104026020016040519081016040528092919081815260200182805461110a90611810565b80156111575780601f1061112c57610100808354040283529160200191611157565b820191906000526020600020905b81548152906001019060200180831161113a57829003601f168201915b5050505050815260200190600101906110bf565b50505050815260200160058201805461118390611810565b80601f01602080910402602001604051908101604052809291908181526020018280546111af90611810565b80156111fc5780601f106111d1576101008083540402835291602001916111fc565b820191906000526020600020905b8154815290600101906020018083116111df57829003601f168201915b5050509183525050600691909101546001600160a01b03166020918201529082526001929092019101610f3f565b6060816000036112515750506040805180820190915260018152600360fc1b602082015290565b8160005b811561127b578061126581611a13565b91506112749050600a83611b1f565b9150611255565b60008167ffffffffffffffff811115611296576112966114c2565b6040519080825280601f01601f1916602001820160405280156112c0576020820181803683370190505b5090505b841561132b576112d5600183611886565b91506112e2600a86611b33565b6112ed906030611a93565b60f81b8183815181106113025761130261189f565b60200101906001600160f81b031916908160001a905350611324600a86611b1f565b94506112c4565b949350505050565b828054828255906000526020600020908101928215611379579160200282015b8281111561137957825182906113699082611904565b5091602001919060010190611353565b50611385929150611389565b5090565b8082111561138557600061139d82826113a6565b50600101611389565b5080546113b290611810565b6000825580601f106113c2575050565b601f0160209004906000526020600020908101906113e091906113e3565b50565b5b8082111561138557600081556001016113e4565b60006020828403121561140a57600080fd5b5035919050565b60005b8381101561142c578181015183820152602001611414565b50506000910152565b6000815180845261144d816020860160208601611411565b601f01601f19169290920160200192915050565b86815260c06020820152600061147a60c0830188611435565b86604084015282810360608401526114928187611435565b905082810360808401526114a68186611435565b91505060018060a01b03831660a0830152979650505050505050565b634e487b7160e01b600052604160045260246000fd5b600082601f8301126114e957600080fd5b813567ffffffffffffffff80821115611504576115046114c2565b604051601f8301601f19908116603f0116810190828211818310171561152c5761152c6114c2565b8160405283815286602085880101111561154557600080fd5b836020870160208301376000602085830101528094505050505092915050565b6000806040838503121561157857600080fd5b82359150602083013567ffffffffffffffff81111561159657600080fd5b6115a2858286016114d8565b9150509250929050565b6020815260006115bf6020830184611435565b9392505050565b6000602082840312156115d857600080fd5b813567ffffffffffffffff8111156115ef57600080fd5b61132b848285016114d8565b60008060006060848603121561161057600080fd5b833567ffffffffffffffff8082111561162857600080fd5b611634878388016114d8565b945060208601359350604086013591508082111561165157600080fd5b5061165e868287016114d8565b9150509250925092565b6000602080830181845280855180835260408601915060408160051b870101925083870160005b828110156116bd57603f198886030184526116ab858351611435565b9450928501929085019060010161168f565b5092979650505050505050565b80518252600060208083015160e0828601526116e960e0860182611435565b9050604084015160408601526060840151858203606087015261170c8282611435565b915050608084015185820360808701528181518084528484019150848160051b850101858401935060005b8281101561176557601f19868303018452611753828651611435565b94870194938701939150600101611737565b5060a0880151955088810360a08a015261177f8187611435565b9550505050505060c08301516117a060c08601826001600160a01b03169052565b509392505050565b6020815260006115bf60208301846116ca565b6000602080830181845280855180835260408601915060408160051b870101925083870160005b828110156116bd57603f198886030184526117fe8583516116ca565b945092850192908501906001016117e2565b600181811c9082168061182457607f821691505b60208210810361087257634e487b7160e01b600052602260045260246000fd5b602080825260129082015271125b9d985b1a59081c1c9bda9958dd08125160721b604082015260600190565b634e487b7160e01b600052601160045260246000fd5b8181038181111561189957611899611870565b92915050565b634e487b7160e01b600052603260045260246000fd5b601f8211156118ff57600081815260208120601f850160051c810160208610156118dc5750805b601f850160051c820191505b818110156118fb578281556001016118e8565b5050505b505050565b815167ffffffffffffffff81111561191e5761191e6114c2565b6119328161192c8454611810565b846118b5565b602080601f831160018114611967576000841561194f5750858301515b600019600386901b1c1916600185901b1785556118fb565b600085815260208120601f198616915b8281101561199657888601518255948401946001909101908401611977565b50858210156119b45787850151600019600388901b60f8161c191681555b5050505050600190811b01905550565b7f466565646261636b20726563656976656420666f722070726f6a6563742049448152600160fd1b602082015260008251611a06816021850160208701611411565b9190910160210192915050565b600060018201611a2557611a25611870565b5060010190565b7402732bb90383937b532b1ba1031b932b0ba32b21d1605d1b815260008251611a5c816015850160208701611411565b9190910160150192915050565b604081526000611a7c6040830185611435565b905060018060a01b03831660208301529392505050565b8082018082111561189957611899611870565b670283937b532b1ba160c51b815260008351611ac9816008850160208801611411565b7301039ba30ba3ab9903ab83230ba32b2103a379d160651b6008918401918201528351611afd81601c840160208801611411565b01601c01949350505050565b634e487b7160e01b600052601260045260246000fd5b600082611b2e57611b2e611b09565b500490565b600082611b4257611b42611b09565b50069056fea26469706673582212206b317d71c53b545e6d34a23707a6bc2955bd3b236072a178adb6b780b378ada664736f6c63430008130033",
  "deployedBytecode": "0x608060405234801561001057600080fd5b50600436106100cf5760003560e01c8063759c3dc51161008c578063bb0e9df611610066578063bb0e9df6146101dd578063bee5cdca146101f0578063cf48bd2c14610210578063dcc601281461021857600080fd5b8063759c3dc5146101a2578063968ed600146101b55780639e302e7e146101bd57600080fd5b8063107046bd146100d457806320b0c9d61461010257806334c1f944146101175780633fafa1271461013757806353339ba01461014e5780635dbb137b1461018f575b600080fd5b6100e76100e23660046113f8565b61022d565b6040516100f996959493929190611461565b60405180910390f35b610115610110366004611565565b610416565b005b61012a6101253660046113f8565b610505565b6040516100f991906115ac565b61014060015481565b6040519081526020016100f9565b61017761015c3660046113f8565b6003602052600090815260409020546001600160a01b031681565b6040516001600160a01b0390911681526020016100f9565b61011561019d3660046115c6565b6105b1565b6101156101b03660046115fb565b6105f1565b61014061081f565b6101d06101cb3660046113f8565b610878565b6040516100f99190611668565b6101156101eb366004611565565b6109ad565b6102036101fe3660046113f8565b610ad7565b6040516100f991906117a8565b6101d0610e42565b610220610f1b565b6040516100f991906117bb565b6000818154811061023d57600080fd5b6000918252602090912060079091020180546001820180549193509061026290611810565b80601f016020809104026020016040519081016040528092919081815260200182805461028e90611810565b80156102db5780601f106102b0576101008083540402835291602001916102db565b820191906000526020600020905b8154815290600101906020018083116102be57829003601f168201915b5050505050908060020154908060030180546102f690611810565b80601f016020809104026020016040519081016040528092919081815260200182805461032290611810565b801561036f5780601f106103445761010080835404028352916020019161036f565b820191906000526020600020905b81548152906001019060200180831161035257829003601f168201915b50505050509080600501805461038490611810565b80601f01602080910402602001604051908101604052809291908181526020018280546103b090611810565b80156103fd5780601f106103d2576101008083540402835291602001916103fd565b820191906000526020600020905b8154815290600101906020018083116103e057829003601f168201915b505050600690930154919250506001600160a01b031686565b60008211801561042857506001548211155b61044d5760405162461bcd60e51b815260040161044490611844565b600061045a600184611886565b8154811061046a5761046a61189f565b6000918252602080832060046007909302019190910180546001810182559083529120016104988282611904565b506104c96104a58361122a565b6040516020016104b591906119c4565b6040516020818303038152906040526105b1565b817fbb56b609b340d0a962d17e4cd04e703c902d99db310e4e5e55b0632cf1a4800d826040516104f991906115ac565b60405180910390a25050565b6002818154811061051557600080fd5b90600052602060002001600091509050805461053090611810565b80601f016020809104026020016040519081016040528092919081815260200182805461055c90611810565b80156105a95780601f1061057e576101008083540402835291602001916105a9565b820191906000526020600020905b81548152906001019060200180831161058c57829003601f168201915b505050505081565b600280546001810182556000919091527f405787fa12a823e0f2b7631cc41b3ba8828b3321ca811111fa75cd3aa3bb5ace016105ed8282611904565b5050565b600082116106415760405162461bcd60e51b815260206004820181905260248201527f427564676574206d7573742062652067726561746572207468616e207a65726f6044820152606401610444565b6001805490600061065183611a13565b919050555060006040518060e0016040528060015481526020018581526020018481526020016040518060400160405280600b81526020016a496e2050726f677265737360a81b8152508152602001600067ffffffffffffffff8111156106ba576106ba6114c2565b6040519080825280602002602001820160405280156106ed57816020015b60608152602001906001900390816106d85790505b50815260208082018590523360409092019190915282546001818101855560009485529382902083516007909202019081559082015191929091908201906107359082611904565b5060408201516002820155606082015160038201906107549082611904565b5060808201518051610770916004840191602090910190611333565b5060a082015160058201906107859082611904565b5060c09190910151600690910180546001600160a01b039092166001600160a01b031992831617905560015460009081526003602090815260409182902080549093163317909255516107de916104b591869101611a2c565b6001547fc0c54fed07481d0998e1446b2c13759606bf4f26b78306307413ac4c4309aa828433604051610812929190611a69565b60405180910390a2505050565b600080805b60005481101561087257600081815481106108415761084161189f565b9060005260206000209060070201600201548261085e9190611a93565b91508061086a81611a13565b915050610824565b50919050565b606060008211801561088c57506001548211155b6108a85760405162461bcd60e51b815260040161044490611844565b60006108b5600184611886565b815481106108c5576108c561189f565b9060005260206000209060070201600401805480602002602001604051908101604052809291908181526020016000905b828210156109a257838290600052602060002001805461091590611810565b80601f016020809104026020016040519081016040528092919081815260200182805461094190611810565b801561098e5780601f106109635761010080835404028352916020019161098e565b820191906000526020600020905b81548152906001019060200180831161097157829003601f168201915b5050505050815260200190600101906108f6565b505050509050919050565b6000821180156109bf57506001548211155b6109db5760405162461bcd60e51b815260040161044490611844565b6000828152600360205260409020546001600160a01b03163314610a4d5760405162461bcd60e51b8152602060048201526024808201527f4f6e6c792070726f6a656374206f776e65722063616e207570646174652073746044820152636174757360e01b6064820152608401610444565b806000610a5b600185611886565b81548110610a6b57610a6b61189f565b90600052602060002090600702016003019081610a889190611904565b50610aa7610a958361122a565b826040516020016104b5929190611aa6565b817f09bdf34fcd9f237be9688c8c80767133cee7573a842b75f28ef1501bfb6954e2826040516104f991906115ac565b610b206040518060e0016040528060008152602001606081526020016000815260200160608152602001606081526020016060815260200160006001600160a01b031681525090565b600082118015610b3257506001548211155b610b4e5760405162461bcd60e51b815260040161044490611844565b6000610b5b600184611886565b81548110610b6b57610b6b61189f565b90600052602060002090600702016040518060e001604052908160008201548152602001600182018054610b9e90611810565b80601f0160208091040260200160405190810160405280929190818152602001828054610bca90611810565b8015610c175780601f10610bec57610100808354040283529160200191610c17565b820191906000526020600020905b815481529060010190602001808311610bfa57829003601f168201915b5050505050815260200160028201548152602001600382018054610c3a90611810565b80601f0160208091040260200160405190810160405280929190818152602001828054610c6690611810565b8015610cb35780601f10610c8857610100808354040283529160200191610cb3565b820191906000526020600020905b815481529060010190602001808311610c9657829003601f168201915b5050505050815260200160048201805480602002602001604051908101604052809291908181526020016000905b82821015610d8d578382906000526020600020018054610d0090611810565b80601f0160208091040260200160405190810160405280929190818152602001828054610d2c90611810565b8015610d795780601f10610d4e57610100808354040283529160200191610d79565b820191906000526020600020905b815481529060010190602001808311610d5c57829003601f168201915b505050505081526020019060010190610ce1565b505050508152602001600582018054610da590611810565b80601f0160208091040260200160405190810160405280929190818152602001828054610dd190611810565b8015610e1e5780601f10610df357610100808354040283529160200191610e1e565b820191906000526020600020905b815481529060010190602001808311610e0157829003601f168201915b5050509183525050600691909101546001600160a01b031660209091015292915050565b60606002805480602002602001604051908101604052809291908181526020016000905b82821015610f12578382906000526020600020018054610e8590611810565b80601f0160208091040260200160405190810160405280929190818152602001828054610eb190611810565b8015610efe5780601f10610ed357610100808354040283529160200191610efe565b820191906000526020600020905b815481529060010190602001808311610ee157829003601f168201915b505050505081526020019060010190610e66565b50505050905090565b60606000805480602002602001604051908101604052809291908181526020016000905b82821015610f1257838290600052602060002090600702016040518060e001604052908160008201548152602001600182018054610f7c90611810565b80601f0160208091040260200160405190810160405280929190818152602001828054610fa890611810565b8015610ff55780601f10610fca57610100808354040283529160200191610ff5565b820191906000526020600020905b815481529060010190602001808311610fd857829003601f168201915b505050505081526020016002820154815260200160038201805461101890611810565b80601f016020809104026020016040519081016040528092919081815260200182805461104490611810565b80156110915780601f1061106657610100808354040283529160200191611091565b820191906000526020600020905b81548152906001019060200180831161107457829003601f168201915b5050505050815260200160048201805480602002602001604051908101604052809291908181526020016000905b8282101561116b5783829060005260206000200180546110de90611810565b80601f016020809104026020016040519081016040528092919081815260200182805461110a90611810565b80156111575780601f1061112c57610100808354040283529160200191611157565b820191906000526020600020905b81548152906001019060200180831161113a57829003601f168201915b5050505050815260200190600101906110bf565b50505050815260200160058201805461118390611810565b80601f01602080910402602001604051908101604052809291908181526020018280546111af90611810565b80156111fc5780601f106111d1576101008083540402835291602001916111fc565b820191906000526020600020905b8154815290600101906020018083116111df57829003601f168201915b5050509183525050600691909101546001600160a01b03166020918201529082526001929092019101610f3f565b6060816000036112515750506040805180820190915260018152600360fc1b602082015290565b8160005b811561127b578061126581611a13565b91506112749050600a83611b1f565b9150611255565b60008167ffffffffffffffff811115611296576112966114c2565b6040519080825280601f01601f1916602001820160405280156112c0576020820181803683370190505b5090505b841561132b576112d5600183611886565b91506112e2600a86611b33565b6112ed906030611a93565b60f81b8183815181106113025761130261189f565b60200101906001600160f81b031916908160001a905350611324600a86611b1f565b94506112c4565b949350505050565b828054828255906000526020600020908101928215611379579160200282015b8281111561137957825182906113699082611904565b5091602001919060010190611353565b50611385929150611389565b5090565b8082111561138557600061139d82826113a6565b50600101611389565b5080546113b290611810565b6000825580601f106113c2575050565b601f0160209004906000526020600020908101906113e091906113e3565b50565b5b8082111561138557600081556001016113e4565b60006020828403121561140a57600080fd5b5035919050565b60005b8381101561142c578181015183820152602001611414565b50506000910152565b6000815180845261144d816020860160208601611411565b601f01601f19169290920160200192915050565b86815260c06020820152600061147a60c0830188611435565b86604084015282810360608401526114928187611435565b905082810360808401526114a68186611435565b91505060018060a01b03831660a0830152979650505050505050565b634e487b7160e01b600052604160045260246000fd5b600082601f8301126114e957600080fd5b813567ffffffffffffffff80821115611504576115046114c2565b604051601f8301601f19908116603f0116810190828211818310171561152c5761152c6114c2565b8160405283815286602085880101111561154557600080fd5b836020870160208301376000602085830101528094505050505092915050565b6000806040838503121561157857600080fd5b82359150602083013567ffffffffffffffff81111561159657600080fd5b6115a2858286016114d8565b9150509250929050565b6020815260006115bf6020830184611435565b9392505050565b6000602082840312156115d857600080fd5b813567ffffffffffffffff8111156115ef57600080fd5b61132b848285016114d8565b60008060006060848603121561161057600080fd5b833567ffffffffffffffff8082111561162857600080fd5b611634878388016114d8565b945060208601359350604086013591508082111561165157600080fd5b5061165e868287016114d8565b9150509250925092565b6000602080830181845280855180835260408601915060408160051b870101925083870160005b828110156116bd57603f198886030184526116ab858351611435565b9450928501929085019060010161168f565b5092979650505050505050565b80518252600060208083015160e0828601526116e960e0860182611435565b9050604084015160408601526060840151858203606087015261170c8282611435565b915050608084015185820360808701528181518084528484019150848160051b850101858401935060005b8281101561176557601f19868303018452611753828651611435565b94870194938701939150600101611737565b5060a0880151955088810360a08a015261177f8187611435565b9550505050505060c08301516117a060c08601826001600160a01b03169052565b509392505050565b6020815260006115bf60208301846116ca565b6000602080830181845280855180835260408601915060408160051b870101925083870160005b828110156116bd57603f198886030184526117fe8583516116ca565b945092850192908501906001016117e2565b600181811c9082168061182457607f821691505b60208210810361087257634e487b7160e01b600052602260045260246000fd5b602080825260129082015271125b9d985b1a59081c1c9bda9958dd08125160721b604082015260600190565b634e487b7160e01b600052601160045260246000fd5b8181038181111561189957611899611870565b92915050565b634e487b7160e01b600052603260045260246000fd5b601f8211156118ff57600081815260208120601f850160051c810160208610156118dc5750805b601f850160051c820191505b818110156118fb578281556001016118e8565b5050505b505050565b815167ffffffffffffffff81111561191e5761191e6114c2565b6119328161192c8454611810565b846118b5565b602080601f831160018114611967576000841561194f5750858301515b600019600386901b1c1916600185901b1785556118fb565b600085815260208120601f198616915b8281101561199657888601518255948401946001909101908401611977565b50858210156119b45787850151600019600388901b60f8161c191681555b5050505050600190811b01905550565b7f466565646261636b20726563656976656420666f722070726f6a6563742049448152600160fd1b602082015260008251611a06816021850160208701611411565b9190910160210192915050565b600060018201611a2557611a25611870565b5060010190565b7402732bb90383937b532b1ba1031b932b0ba32b21d1605d1b815260008251611a5c816015850160208701611411565b9190910160150192915050565b604081526000611a7c6040830185611435565b905060018060a01b03831660208301529392505050565b8082018082111561189957611899611870565b670283937b532b1ba160c51b815260008351611ac9816008850160208801611411565b7301039ba30ba3ab9903ab83230ba32b2103a379d160651b6008918401918201528351611afd81601c840160208801611411565b01601c01949350505050565b634e487b7160e01b600052601260045260246000fd5b600082611b2e57611b2e611b09565b500490565b600082611b4257611b42611b09565b50069056fea26469706673582212206b317d71c53b545e6d34a23707a6bc2955bd3b236072a178adb6b780b378ada664736f6c63430008130033",
  "linkReferences": {},
  "deployedLinkReferences": {},
  "address": "0x81Fa56F8A0462d7946Db4Ed4c0654d7756DCFE9d"
}