{
    "_format": "hh-sol-artifact-1",
    "contractName": "UserManagement",
    "sourceName": "contracts/UserManagement.sol",
    "abi": [
        {
            "inputs": [],
            "stateMutability": "nonpayable",
            "type": "constructor"
        },
        {
            "inputs": [],
            "name": "admin",
            "outputs": [
                {
                    "internalType": "address",
                    "name": "",
                    "type": "address"
                }
            ],
            "stateMutability": "view",
            "type": "function"
        },
        {
            "inputs": [
                {
                    "internalType": "address",
                    "name": "userAddress",
                    "type": "address"
                }
            ],
            "name": "approveUser",
            "outputs": [],
            "stateMutability": "nonpayable",
            "type": "function"
        },
        {
            "inputs": [
                {
                    "internalType": "string",
                    "name": "email",
                    "type": "string"
                }
            ],
            "name": "isUserAuthorized",
            "outputs": [
                {
                    "internalType": "bool",
                    "name": "",
                    "type": "bool"
                }
            ],
            "stateMutability": "view",
            "type": "function"
        },
        {
            "inputs": [
                {
                    "internalType": "string",
                    "name": "email",
                    "type": "string"
                },
                {
                    "internalType": "enum UserManagement.Role",
                    "name": "role",
                    "type": "uint8"
                }
            ],
            "name": "registerUser",
            "outputs": [],
            "stateMutability": "nonpayable",
            "type": "function"
        },
        {
            "inputs": [
                {
                    "internalType": "address",
                    "name": "",
                    "type": "address"
                }
            ],
            "name": "users",
            "outputs": [
                {
                    "internalType": "string",
                    "name": "email",
                    "type": "string"
                },
                {
                    "internalType": "enum UserManagement.Role",
                    "name": "role",
                    "type": "uint8"
                },
                {
                    "internalType": "bool",
                    "name": "isApproved",
                    "type": "bool"
                }
            ],
            "stateMutability": "view",
            "type": "function"
        }
    ],
    "bytecode": "0x608060405234801561001057600080fd5b50600180546001600160a01b03191633179055610876806100326000396000f3fe608060405234801561001057600080fd5b50600436106100575760003560e01c8063338e12eb1461005c5780636148b96d14610071578063a87430ba14610099578063d624fdb6146100bb578063f851a440146100ce575b600080fd5b61006f61006a366004610584565b6100f9565b005b61008461007f3660046105da565b6101df565b60405190151581526020015b60405180910390f35b6100ac6100a7366004610617565b610339565b6040516100909392919061067a565b61006f6100c9366004610617565b6103e9565b6001546100e1906001600160a01b031681565b6040516001600160a01b039091168152602001610090565b60008251116101445760405162461bcd60e51b815260206004820152601260248201527122b6b0b4b61034b9903932b8bab4b932b21760711b60448201526064015b60405180910390fd5b604051806060016040528083815260200182600281111561016757610167610664565b81526000602091820181905233815290819052604090208151819061018c9082610764565b50602082015160018083018054909160ff19909116908360028111156101b4576101b4610664565b021790555060409190910151600190910180549115156101000261ff00199092169190911790555050565b336000908152602081905260408082208151606081019092528054839291908290829061020b906106db565b80601f0160208091040260200160405190810160405280929190818152602001828054610237906106db565b80156102845780601f1061025957610100808354040283529160200191610284565b820191906000526020600020905b81548152906001019060200180831161026757829003601f168201915b5050509183525050600182015460209091019060ff1660028111156102ab576102ab610664565b60028111156102bc576102bc610664565b815260019190910154610100900460ff1615156020918201526040519192506102e791859101610824565b60408051601f198184030181529082905280516020918201208351909261030e9201610824565b60405160208183030381529060405280519060200120148015610332575080604001515b9392505050565b600060208190529081526040902080548190610354906106db565b80601f0160208091040260200160405190810160405280929190818152602001828054610380906106db565b80156103cd5780601f106103a2576101008083540402835291602001916103cd565b820191906000526020600020905b8154815290600101906020018083116103b057829003601f168201915b5050506001909301549192505060ff8082169161010090041683565b6001546001600160a01b0316331461044f5760405162461bcd60e51b815260206004820152602360248201527f4f6e6c792061646d696e2063616e20706572666f726d2074686973206163746960448201526237b71760e91b606482015260840161013b565b6001600160a01b03811660009081526020819052604081208054610472906106db565b9050116104b85760405162461bcd60e51b81526020600482015260146024820152732ab9b2b9103237b2b9903737ba1032bc34b9ba1760611b604482015260640161013b565b6001600160a01b03166000908152602081905260409020600101805461ff001916610100179055565b634e487b7160e01b600052604160045260246000fd5b600082601f83011261050857600080fd5b813567ffffffffffffffff80821115610523576105236104e1565b604051601f8301601f19908116603f0116810190828211818310171561054b5761054b6104e1565b8160405283815286602085880101111561056457600080fd5b836020870160208301376000602085830101528094505050505092915050565b6000806040838503121561059757600080fd5b823567ffffffffffffffff8111156105ae57600080fd5b6105ba858286016104f7565b9250506020830135600381106105cf57600080fd5b809150509250929050565b6000602082840312156105ec57600080fd5b813567ffffffffffffffff81111561060357600080fd5b61060f848285016104f7565b949350505050565b60006020828403121561062957600080fd5b81356001600160a01b038116811461033257600080fd5b60005b8381101561065b578181015183820152602001610643565b50506000910152565b634e487b7160e01b600052602160045260246000fd5b6060815260008451806060840152610699816080850160208901610640565b601f01601f191682016080019050600384106106c557634e487b7160e01b600052602160045260246000fd5b8360208301528215156040830152949350505050565b600181811c908216806106ef57607f821691505b60208210810361070f57634e487b7160e01b600052602260045260246000fd5b50919050565b601f82111561075f57600081815260208120601f850160051c8101602086101561073c5750805b601f850160051c820191505b8181101561075b57828155600101610748565b5050505b505050565b815167ffffffffffffffff81111561077e5761077e6104e1565b6107928161078c84546106db565b84610715565b602080601f8311600181146107c757600084156107af5750858301515b600019600386901b1c1916600185901b17855561075b565b600085815260208120601f198616915b828110156107f6578886015182559484019460019091019084016107d7565b50858210156108145787850151600019600388901b60f8161c191681555b5050505050600190811b01905550565b60008251610836818460208701610640565b919091019291505056fea26469706673582212203d6c2ded643abf495197f64d6b9b28b8d769643a2e8ac1d8c91c053135a1b0b064736f6c63430008130033",
    "linkReferences": {},
    "deployedLinkReferences": {}
}